:030000000225D8FE
:1025D80078FFE4F6D8FD9000007FFF7E00E4F0A3CA
:1025E800DFFCDEFA750820750900758120022633A4
:100DCE0090FFFD12041BEBF0A3EAF0A3E9F090FFF5
:040DDE00FD12041BE3
:100DE20090000612043FE0FBA3E0FAA3E0F99000B2
:100DF2000612043FEBF0A3EAF0A3E9F090000C1214
:100E0200043FE0FEA3E0FF90000C12043FEEF0A3CB
:100E1200EFF090000912043FE0F9A3E0FAA3E085A5
:100E22000883850982C9F0A3EAF0A3E9F085088363
:100E3200850982E0FBA3E475F00112011DA9F0FA15
:100E4200740F12006C90000312043FA3A3E0FF850D
:100E52000883850982E0FBA3E475F00112011DA954
:100E6200F0FAEF12006C90000312043FA3E0FAEADA
:100E7200FF850883850982E0FBA3E475F001120176
:100E82001DA9F0FAEF12006C850883850982E0FB48
:100E9200A3E475F00112011DA9F0FAE412006C85B9
:100EA2000883850982E0FBA3E475F00112011DA904
:100EB200F0FA740A12006C850883850982E0FBA3AC
:100EC200E475F00112011DA9F0FA740B12006C8591
:100ED2000883850982E0FBA3E475F00112011DA9D4
:100EE200F0FAE412006C850883850982E0FBA3E432
:100EF20075F00112011DA9F0FAE412006C85088355
:100F0200850982E0FBA3E475F00112011DA9F0FA44
:100F1200E412006C850883850982E0FBA3E475F086
:100F22000112011DA9F0FA740112006C8508838573
:100F32000982E0FBA3E475F00112011DA9F0FA7425
:100F42000212006C850883850982E0FBA3E475F038
:100F52000112011DA9F0FA740312006C8508838541
:100F62000982E0FBA3E475F00112011DA9F0FA74F5
:100F72000412006C850883850982E0FBA3E475F006
:100F82000112011DA9F0FA740512006C850883850F
:100F92000982E0FBA3E475F00112011DA9F0FA74C5
:100FA2000612006C850883850982E0FBA3E475F0D4
:100FB2000112011DA9F0FA740712006C90000912C7
:100FC200043FA3E0FAA3E02400EA3404FF85088387
:100FD200850982E0FBA3E475F00112011DA9F0FA74
:100FE200EF12006C90000912043FA3A3E02400F961
:100FF200AF01850883850982E0FBA3E475F0011245
:10100200011DA9F0FAEF12006C90000912043FE0F2
:07101200FBA3E0FAA3E0F9E3
:0610190090000E02041B12
:012DCE0022E2
:012DCF0022E1
:102C530090FFFD12041BEBF0A3EAF0A3E9F0850853
:102C630083850982E0F9A3E0FAA3E0850883850957
:0F2C730082C9F0A3EAF0A3E9F090000302041B6A
:102C820090FFFD12041BEBF0A3EAF0A3E9F0850824
:102C920083850982E0F9A3E0FAA3E0850883850928
:0F2CA20082C9F0A3EAF0A3E9F090000302041B3B
:012DD00022E0
:012DD10022DF
:102D650090FFFD12041BEBF0A3EAF0A3E9F090003D
:042D75000302041B36
:102CB10090FFFD12041BEBF0A3EAF0A3E9F08508F5
:102CC10083850982E0F9A3E0FAA3E08508838509F9
:0F2CD10082C9F0A3EAF0A3E9F090000302041B0C
:012DD20022DE
:012DD30022DD
:0E2D9E00758903758AC0758C63D28CD2A92208
:1028FD00122DD09010157401F0901165A3E0F8A37E
:10290D00E0F5828883A3E0F8A3E0F988838982E06B
:10291D00FD7821A308E0F6DDFA8881A3E0F508A390
:10292D00E0F509D0E0FFD0E0FED0E0FDD0E0FCD036
:10293D00E0FBD0E0FAD0E0F9D0E0F8D083D082D03F
:08294D00F0D0E0D0D0D2AF328F
:10267800C0D0C0E0C0F0C082C083E8C0E0E9C0E0DC
:10268800EAC0E0EBC0E0ECC0E0EDC0E0EEC0E0EF97
:10269800C0E0E581C39421FD901161A3E0F8A3E0B7
:1026A800F5828883A3E0F8A3E0F988838982EDF0B6
:1026B8007821A308E6F0DDFAA3E508F0A3E509F020
:1026C800122DD0901165E0901161F0901165A3E092
:1026D800901161A3F0901165A3A3E0901161A3A3E9
:0C26E800F09013C9E09011C8F002290620
:0D2DAC00E581C39404F581122DD002269A12
:03000B000229AC1B
:1029AC00C2AFC0D0C0E0C0F0C082C083E8C0E0E9D4
:1029BC00C0E0EAC0E0EBC0E0ECC0E0EDC0E0EEC08F
:1029CC00E0EFC0E0122D4DC28C12134CD28C1226AB
:1029DC00F4D0E0FFD0E0FED0E0FDD0E0FCD0E0FB96
:1029EC00D0E0FAD0E0F9D0E0F8D083D082D0F0D0AB
:0629FC00E0D0D0D2AF32A2
:03002300022A02AC
:102A0200C2AFC0D0C0E0C0F0C082C083E8C0E0E97D
:102A1200C0E0EAC0E0EBC0E0ECC0E0EDC0E0EEC038
:102A2200E0EFC0E0122D4DC2AC12160DD2AC122650
:102A3200F4D0E0FFD0E0FED0E0FDD0E0FCD0E0FB3F
:102A4200D0E0FAD0E0F9D0E0F8D083D082D0F0D054
:062A5200E0D0D0D2AF324B
:101CD10000000100020001000300010002000100F8
:101CE10004000100020001000300010002000100E4
:101CF10005000100020001000300010002000100D3
:101D010004000100020001000300010002000100C3
:101D110006000100020001000300010002000100B1
:101D210004000100020001000300010002000100A3
:101D31000500010002000100030001000200010092
:101D41000400010002000100030001000200010083
:101D51000700010002000100030001000200010070
:101D61000400010002000100030001000200010063
:101D71000500010002000100030001000200010052
:101D81000400010002000100030001000200010043
:101D91000600010002000100030001000200010031
:101DA1000400010002000100030001000200010023
:101DB1000500010002000100030001000200010012
:101DC1000400010002000100030001000200010003
:10000E00122DCE122D0D1228A1121AB41214BD12D9
:05001E002B73022DCF41
:102D4D00901015E06401700F901164E0C394FFE4DE
:082D5D0094005003E004F02291
:1026F400901015E064017071C2AF901164E0D3943E
:1027040000E494004003E014F0901164E0705890E9
:102714001016E07052122BAD9013C9E0FF75F00350
:10272400A42468F582E43411F583E0F9A3E0FAA364
:10273400E0901165C9F0A3EAF0A3E9F09011C8E0B4
:10274400FEEF6E602290118FE0FCA3E0FDA3E0FE9B
:10275400A3E02401FFE43EFEE43DFDE43CFC9011D3
:0A2764008F1202E2122DACD2AF2258
:102B3300901015E07039122BAD9013C9E09011C8B5
:102B4300F075F003A42468F582E43411F583E0FB07
:102B5300A3E0FAA3E0F9901165EBF0A3EAF0A3E98F
:102B6300F0901161EBF0A3EAF0A3E9F01228FD2243
:06134C0090FFFD12041BDE
:10135200901015E0640160030214B7901017E0F9D1
:10136200A3E0FAA3E0850883850982C9F0A3EAF025
:10137200A3E9F0850883850982E0FBA3E0FAA3E0F4
:10138200F990001512003F640C70030214B7C2AF4B
:1013920090000F12028EE4FBFAF9F8C312027D707C
:1013A20003021490850883850982E0FBA3E0FAA377
:1013B200E0F990000F12028EEF24FFFFEE34FFFEE1
:1013C200ED34FFFDEC34FFFC90000F1202BE9000E2
:1013D2000F12028EE4FBFAF9F8C312027D600302D7
:1013E2001490850883850982E0FBA3E0FAA3E0F963
:1013F20090001312003F54376024E92413F9E43AB1
:10140200FA12002654C812006C850883850982E00E
:10141200FBA3E0FAA3E0F99000147401801285089E
:1014220083850982E0FBA3E0FAA3E0F9900014E4CB
:1014320012007E850883850982E0FBA3E0FAA3E01F
:10144200F990001312003F54087043901014E0FF0B
:1014520090001912003FFEEF4E901014F09000170A
:1014620012003F24CAF582E43413F583C083C0829C
:10147200E0FF850883850982E0FBA3E0FAA3E0F997
:1014820090001812003FFEEF4ED082D083F0850804
:1014920083850982E0FBA3E0FAA3E0F9900003123E
:1014A2000392850883850982EBF0A3EAF0A3E9F0B1
:0514B200D2AF0213752A
:0614B70090000302041B7B
:050003007E017F2322B5
:012DD40022DC
:10101F0090FFFD12041BEBF0A3EAF0A3E9F090FFA1
:04102F00FA12041B92
:1010330090000612043FE0FBA3E0FAA3E0F990005E
:101043000612003F901CD193FF90000312043FEF60
:10105300F0E92407F9E43AFA90000312043FE0FFB1
:101063007C0029F9EC3AFA120026901CD193FE90E9
:10107300000412043FEEF0EF33333354F8FF9000D3
:101083000412043FE02FFF90000512043FEFF0909D
:10109300000512043FE075F003A42468F582E434EC
:1010A30011F583E0F9A3E0FAA3E0850883850982BB
:1010B300C9F0A3EAF0A3E9F0850883850982E0FB80
:1010C300A3E0FAA3E0F990000F12031F0000000051
:1010D30090000912043FE0FBA3E0FAA3E0F9C00388
:1010E300C002C001850883850982E0FBA3E0FAA35F
:1010F300E0F990000C1203C2850883850982E0FBA6
:10110300A3E0FAA3E02413F9E43AFA120026FF90CD
:10111300000C12043FE0F45F12006C90000D120407
:101123003FE0FF850883850982E0FBA3E0FAA3E0A3
:10113300F9900014EF12007E90001312003F540840
:101143007052901014E0FF850883850982E0FBA3A9
:10115300E0FAA3E0F990001912003FFEEF4E901061
:1011630014F090000312043FE024CAF582E4341320
:10117300F583C083C082E0FF850883850982E0FB95
:10118300A3E0FAA3E0F990001812003FFEEF4ED05F
:1011930082D083F090000612043FE0FBA3E0FAA3A1
:1011A300E0F990FFFD12041BEBF0A3EAF0A3E9F0D2
:1011B30090000312043FE0FBA3E0FAA3E0F912203E
:0911C3008090000512043FE0FFDA
:0611CC0090000E02041B5E
:1017500090FFFD12041BEBF0A3EAF0A3E9F090FF69
:04176000FF12041B55
:10176400850883850982A3E0FBA3E0FAA3E0F9C01E
:1017740003C002C001901161E0FBA3E0FAA3E0F909
:101784009000091203C2901161E0FBA3E0FAA3E008
:10179400F990001712003FFF7E00850883850982B7
:1017A400A3E0FBA3E0FAA3E02407F9E43AFAE92F63
:1017B400F9EE3AFAC003C002C001120026FF9011EC
:1017C40061E0FBA3E0FAA3E0F990001812003F4F98
:1017D400D001D002D00312006C850883850982A34E
:1017E400E0FBA3E0FAA3E02406F9E43AFAC003C05C
:1017F40002C001120026FF901161E0FBA3E0FAA3EE
:10180400E0F990001912003F4FD001D002D003122A
:10181400006C901161E0FBA3E0FAA3E0F9900017DB
:1018240012003F850883850982F0E0FF24CAF5820F
:10183400E43413F583C083C082E0FE901161E0FBC1
:10184400A3E0FAA3E0F990001812003FF4FDEE5D66
:10185400D082D083F074CA2FF582E43413F583E088
:101864007013901014E0FF90001912003FF4FEEF83
:051874005E901014F06D
:0618790090000402041BB4
:1020800090FFFD12041BEBF0A3EAF0A3E9F090FF30
:04209000FF12041B1C
:10209400850883850982A3E0FBA3E0FAA3E0F99015
:1020A400001712003F850883850982F0900004120E
:1020B400043FE0FBA3E0FAA3E02407F9E43AFA853D
:1020C4000883850982E0FF7E0029F9EE3AFAC0030D
:1020D400C002C001120026FD850883850982A3E0A1
:1020E400FBA3E0FAA3E0F990001812003FF45DD0DE
:1020F40001D002D00312006C90000412043FE0FBF4
:10210400A3E0FAA3E02407F9E43AFAE92FF9EA3E56
:10211400FA120026703D90000412043FE0FBA3E095
:10212400FAA3E02406F9E43AFAC003C002C001129B
:102134000026FF850883850982A3E0FBA3E0FAA3B8
:10214400E0F990001912003FF45FD001D002D003EF
:0321540012006C0A
:0621570090000702041BCA
:10276E0090FFFD12041BEBF0A3EAF0A3E9F090FF3B
:04277E00FF12041B27
:10278200850883850982A3E0FBA3E0FAA3E0F99020
:102792000006E412007E850883850982E4F085083C
:1027A20083850982E0FF7E00C39402EE94005023E9
:1027B200A3E0FBA3E0FAA3E02407F9E43AFAE92F45
:1027C200F9EE3AFAE412006C850883850982E00486
:0327D200F080CBC9
:0627D50090000402041B49
:0614BD0090FFF612041B73
:1014C3007C007D2D7B017A11799312295585088340
:1014D300850982E4F0A3F0850883850982E0FEA3F1
:1014E300E0C39404EE940040030215A085088385AD
:1014F3000982E0FEA3E0FF2401FCE43E8508838526
:101503000982A3A3F0A3CCF07C007D091200A07490
:10151300932FF974113EFA7B0190000412043FEB00
:10152300F0A3EAF0A3E9F0850883850982A3A3E089
:10153300FEA3E0FF7C007D091200A074932FF974D1
:10154300113EFA7B0190000712043FEBF0A3EAF08F
:10155300A3E9F090000412043FE0FBA3E0FAA3E048
:10156300F9E412006C90000712043FE0FBA3E0FAD9
:10157300A3E0F9C003C002C00190000412043FE0DD
:10158300FBA3E0FAA3E0F99000011203C2850883EC
:10159300850982E475F0011201070214DA850883D4
:1015A300850982E0FEA3E0FF7C007D091200A074A0
:1015B300932FF974113EFA7B0190000412043FEB60
:1015C300F0A3EAF0A3E9F090000412043FE0FBA3C8
:1015D300E0FAA3E0F9E412006CFBFAF9C003C002DD
:1015E300C00190000412043FE0FBA3E0FAA3E0F97A
:1015F3009000011203C29011C07401F0A37411F0A2
:04160300A37493F049
:0616070090000A02041B22
:102D0D00E4901164F0901016F09011C7F09010152A
:102D1D00F090118F1202EE000000009011C312020C
:062D2D00EE000000002290
:0628A10090FFFF12041B72
:1028A700E4901014F0850883850982F085088385F4
:1028B7000982E0FFC39402E49400501774CA2FF50D
:1028C70082E43413F583E4F0850883850982E00404
:1028D700F080D9E49011C8F09013C9F0F990116510
:1028E700C9F0A3F0A3E9F0901161E4F0A3F0A3F01D
:0628F70090000102041B29
:102B730090FFFF12041B740CF07B017A1179C9904A
:102B8300FFFD12041BEBF0A3EAF0A3E9F07B007A4C
:102B930000790090FFFD12041BEBF0A3EAF0A3E918
:0A2BA300F07BFF7A2A79580211D264
:061AB40090FFF812041B74
:101ABA007C017D447B017A10791A1229557C007DBC
:101ACA00277B017A1179681229558508838509824D
:101ADA00E4F0850883850982E0FFC3940BE494004F
:101AEA00507CEF04A3F0EF75F01BA4241AF97410CC
:101AFA0035F0FA850883850982A3A37401F0A3EA65
:101B0A00F0A3E9F0850883850982A3E075F01BA498
:101B1A00241AF9741035F0FA7B0190000512043F7B
:101B2A00EBF0A3EAF0A3E9F090000512043FE0FB12
:101B3A00A3E0FAA3E0F9C003C002C00185088385C7
:101B4A000982A3A3E0FBA3E0FAA3E0F99000031241
:101B5A0003C2850883850982E004F0021ADC85083D
:101B6A0083850982E075F01BA4241AF9741035F0F4
:101B7A00FAA3A37401F0A3EAF0A3E9F07B007A00C8
:101B8A007900C003C002C001850883850982A3A326
:101B9A00E0FBA3E0FAA3E0F99000031203C290105D
:101BAA0017E4F0A3F0A3F07B0190115E04F0A37494
:061BBA0010F0A3741AF004
:061BC00090000802041B66
:1029550090FFFE12041BECF0A3EDF090FFFD1204B6
:102965001BEBF0A3EAF0A3E9F090000312043FE0AB
:10297500FEA3E0D39400EE940040268508838509E4
:1029850082E0FBA3E475F00112011DA9F0FAE4123F
:10299500006C90000312043F74FFF5F012010780EC
:0729A500C890000502041BAD
:1027DB0090FFFD12041BEBF0A3EAF0A3E9F09000CD
:1027EB000612043FE0FEA3E0D39400EE9400403DBC
:1027FB0090000312043FE0FBA3E475F00112011DEE
:10280B00A9F0FA120026FF850883850982E0FBA355
:10281B00E475F00112011DA9F0FAEF12006C9000A3
:10282B000612043F74FFF5F012010780B190000807
:03283B0002041B79
:10283E00C2AF901164E07058901016E07052122BD7
:10284E00AD9013C9E0FF75F003A42468F582E4345B
:10285E0011F583E0F9A3E0FAA3E0901165C9F0A3A6
:10286E00EAF0A3E9F09011C8E0FEEF6E602290113D
:10287E008FE0FCA3E0FDA3E0FEA3E02401FFE43E15
:10288E00FEE43DFDE43CFC90118F1202E21226782C
:03289E00D2AF2294
:062BAD0090FFFF12041B63
:102BB300901014E0901CD193850883850982F0E07E
:102BC300FF24CAF582E43413F583E0901CD193FE0D
:0D2BD300EF33333354F8FFEE2F9013C9F0A9
:062BE00090000102041B3D
:102A580090FFFD12041BEBF0A3EAF0A3E9F0850850
:102A680083850982E0F9A3E0FAA3E0850883850954
:102A780082C9F0A3EAF0A3E9F0C2AF9011C3E0FC69
:102A8800A3E0FDA3E0FEA3E02401FFE43EFEE43D55
:102A9800FDE43CFC9011C31202E2D2AF122DD380A8
:012AA800D855
:1005390090FFFD12041BEBF0A3EAF0A3E9F090FF92
:0C054900FF12041BEFF090FFFD12041BDA
:10055500C2AF90115EE0F9A3E0FAA3E085088385B8
:100565000982C9F0A3EAF0A3E9F085088385098229
:10057500E0FBA3E0FAA3E04A4B70030208568508A6
:1005850083850982E0FBA3E0FAA3E0F9900003125A
:10059500039290115EEBF0A3EAF0A3E9F0D2AF90DD
:1005A500000412043FE0FBA3E0FAA3E0F9C003C096
:1005B50002C001850883850982E0FBA3E0FAA3E078
:1005C500F912034390000312043FE0FF8508838579
:1005D5000982E0FBA3E0FAA3E0F9900015EF120011
:1005E5007E900013E412007E900014E412007E90C9
:1005F500000F12031F0000000090001012043FE0DE
:10060500FBA3E0FAA3E0F990001012043FEBF0A37E
:10061500EAF0A3E9F090000C12043FE0FCA3E0FD32
:10062500A3E0FEA3E0FF90000C12043F1202E2904B
:10063500000712043FE0FBA3E0FAA3E0F9900007EE
:1006450012043FEBF0A3EAF0A3E9F09000131204C3
:100655003FE0FEA3E0FF90001312043FEEF0A3EF8E
:10066500F090000A12043FE0FEA3E0FF90000A129A
:10067500043FEEF0A3EFF0850883850982E0FBA334
:10068500E0FAA3E0F990001AE412007E900003124C
:10069500043FE0FF131313541F90001712007EEF61
:1006A500540790001612007E90001712003FFFF8C5
:1006B5007401088002C333D8FC90001912007E90A3
:1006C500001612003FFFF87401088002C333D8FCFE
:1006D50090001812007E7B007A007900C003C002EA
:1006E500C001850883850982E0FBA3E0FAA3E0F950
:1006F5009000091203C27B007A007900C003C00292
:10070500C001850883850982E0FBA3E0FAA3E0F92F
:1007150090000C1203C2850883850982E0FBA3E0E3
:10072500FAA3E0F9122CB1850883850982E0FBA3C1
:10073500E0FAA3E0F9122C53C2AF8508838509823C
:10074500E0FBA3E0FAA3E0F990000312043FE07593
:10075500F003A42468F582E43411F583EBF0A3EAF1
:10076500F0A3E9F0901017E0FBA3E0FAA3E0F9C0CD
:1007750003C002C001850883850982E0FBA3E0FA76
:10078500A3E0F99000031203C27B007A007900C050
:1007950003C002C001850883850982E0FBA3E0FA56
:1007A500A3E0F99000061203C2901017E0FBA3E046
:1007B500FAA3E04A4B6025850883850982E0FBA3FF
:1007C500E0FAA3E0F9C003C002C001901017E0FBF6
:1007D500A3E0FAA3E0F99000061203C28508838519
:1007E5000982E0F9A3E0FAA3E0901017C9F0A3EAA3
:1007F500F0A3E9F0901014E0FF850883850982E0F5
:10080500FBA3E0FAA3E0F990001912003FFEEF4EBA
:10081500901014F090001712003F24CAF582E434BA
:1008250013F583C083C082E0FF850883850982E0D4
:10083500FBA3E0FAA3E0F990001812003FFEEF4E8B
:10084500D082D083F09011C7E004F0D2AF7F008052
:0508550004D2AF7F4258
:06085A0090001502041BD2
:101DD10090FFFD12041BEBF0A3EAF0A3E9F090FFE2
:041DE100FD12041BD0
:101DE500901164E0D39400E4940040097B007A00EC
:101DF5007900021EBEC2AF9011C0E0F9A3E0FAA3BC
:101E0500E0850883850982C9F0A3EAF0A3E9F0908B
:101E150011C0E0FBA3E0FAA3E04A4B60189011C0A3
:101E2500A3A3E0F99000011203929011C0EBF0A377
:101E3500EAF0A3E9F0D2AF850883850982E0FBA328
:101E4500E0FAA3E04A4B6063850883850982E0FBDD
:101E5500A3E0FAA3E0F9740112006C8508838509F3
:101E650082E0FBA3E0FAA3E0F9900004E4F5F012A8
:101E7500013390000312043FE0FBA3E0FAA3E0F96D
:101E8500C003C002C001850883850982E0FBA3E089
:101E9500FAA3E0F99000011203C28508838509823F
:101EA500E0FBA3E0FAA3E0F912276E850883850914
:091EB50082E0FBA3E0FAA3E0F9CE
:061EBE0090000602041B67
:100B710090FFFC12041B1202E290FFFD12041BEB1A
:0D0B8100F0A3EAF0A3E9F090FFFD12041BC1
:100B8E0090000312043FE0FBA3E0FAA3E0F9120089
:100B9E00266401601290000A12043FE0FBA3E0FA03
:100BAE00A3E0F97401803A901164E0D39400E494C8
:100BBE0000401290000A12043FE0FBA3E0FAA3E00B
:100BCE00F97402801C901016E0D39400E494004057
:100BDE001C90000A12043FE0FBA3E0FAA3E0F974B4
:100BEE000D12006C7B007A007900020DC8C2AF9026
:100BFE00000312043FE0FBA3E0FAA3E0F99000012A
:100C0E00120392850883850982EBF0A3EAF0A3E92B
:100C1E00F0850883850982E0FBA3E0FAA3E04A4B46
:100C2E0060377B007A007900C003C002C0019000DB
:100C3E000312043FE0FBA3E0FAA3E0F990000112D7
:100C4E0003C2D2AF90000A12043FE0FBA3E0FAA366
:100C5E00E0F9E412006C020DBA901161E0FBA3E022
:100C6E00FAA3E02413F9E43AFA1200264402120021
:100C7E006C901161E0FBA3E0FAA3E0F9900014E49C
:100C8E0012007E90000612043FE0FCA3E0FDA3E0FC
:100C9E00FEA3E0FF90000F1202BE90000312043F6D
:100CAE00E0FBA3E0FAA3E0F9121750D2AF12283EF0
:100CBE00C2AF901161E0FBA3E0FAA3E0F99000143B
:100CCE0012003F24FE60292402704390000C120390
:100CDE0092850883850982EBF0A3EAF0A3E9F090F0
:100CEE00000A12043FE0FBA3E0FAA3E0F9E48064FB
:100CFE00850883850982E4F0A3F0A3F090000A1220
:100D0E00043FE0FBA3E0FAA3E0F9740E80469000E6
:100D1E000312043FE0FBA3E0FAA3E0F990FFFD12FB
:100D2E00041BEBF0A3EAF0A3E9F0901161E0FBA342
:100D3E00E0FAA3E0F9122080850883850982E4F0A9
:100D4E00A3F0A3F090000A12043FE0FBA3E0FAA385
:100D5E00E0F9740A12006C901161E0FBA3E0FAA3B3
:100D6E00E0F9900013E412007E900014E412007E6D
:100D7E007B007A007900C003C002C001901161E0CF
:100D8E00FBA3E0FAA3E0F99000091203C27B007AFC
:100D9E00007900C003C002C001901161E0FBA3E026
:100DAE00FAA3E0F990000C1203C2D2AF8508838536
:0A0DBE000982E0FBA3E0FAA3E0F9CC
:060DC80090000D02041B67
:10222C0090FFFD12041BEBF0A3EAF0A3E9F0850884
:10223C0083850982E0FBA3E0FAA3E0F9120026648F
:10224C000160057F010222F0C2AF90000612003F30
:10225C00604790FFFF12041BE4F090FFFF12041B79
:10226C007402F090000512043FE0FBA3E0FAA3E037
:10227C00F990FFFD12041BEBF0A3EAF0A3E9F09038
:10228C00000512043FE0FBA3E0FAA3E0F912101FD3
:10229C00D2AF12283E7F00804B850883850982E0EF
:1022AC00FBA3E0FAA3E0F9900001120392E94A4B78
:1022BC006006D2AF7F14802C90000312043FE0FB29
:1022CC00A3E0FAA3E0F9C003C002C001850883852E
:1022DC000982E0FBA3E0FAA3E0F99000011203C22B
:0A22EC00D2AF7F0090000602041B31
:1011D20090FFFD12041BEBF0A3EAF0A3E9F090FFED
:0411E200FC12041BDC
:1011E600C2AF901164E0D39400E494004007D2AFFC
:1011F6007F3C02134690000D12043FE0FF75F0039A
:10120600A42468F582E43411F583E0FBA3E0FAA395
:10121600E04A4B60030213427901EF75F003A42400
:1012260068F582E43411F583E4F0A3F0A304F0D268
:10123600AF90FFFE12041BE4F0A3F090000C120422
:101246003FE0FBA3E0FAA3E0F990FFFD12041BEBDD
:10125600F0A3EAF0A3E9F090000C12043FE0FBA330
:10126600E0FAA3E0F990FFFD12041BEBF0A3EAF00D
:10127600A3E9F090000C12043FE0FBA3E0FAA3E020
:10128600F9120DCE850883850982EBF0A3EAF0A357
:10129600E9F090FFFE12041BE4F0A3F0FBFAF990CC
:1012A600FFFD12041BEBF0A3EAF0A3E9F090FFFCAC
:1012B60012041B1202EE0000000090FFFE12041B37
:1012C600E4F0A3F0FBFAF990FFFD12041BEBF0A388
:1012D600EAF0A3E9F090000E12043FE0FBA3E0FA67
:1012E600A3E0F990001B12043FE0FF1205399000BD
:1012F6000312043FEFF090000312043FE0700D90DC
:101306001015E06401702B12283E8026C2AF7B00C8
:101316007A00790090000D12043FE075F003A424D2
:1013260068F582E43411F583EBF0A3EAF0A3E9F063
:10133600D2AF90000312043FE0FF8004D2AF7F28B3
:0613460090000E02041BE2
:0E08600090FFFF12041BEFF090FFFD12041B2F
:10086E00901164E0D39400E4940040057F40020BA5
:10087E006B90000312043FE0FE640C70057F3E0295
:10088E000B6BC2AFEEF4701A901161E0FBA3E0FAAD
:10089E00A3E0F990001512003FFF90000312043FF1
:1008AE00EFF090000312043FE075F003A42468F506
:1008BE0082E43411F583E0F9A3E0FAA3E08508831E
:1008CE00850982C9F0A3EAF0A3E9F08508838509BA
:1008DE0082E0FBA3E0FAA3E04A4B7007D2AF7F435E
:1008EE00020B6B850883850982E0FBA3E0FAA3E087
:1008FE00F9E4F583758201EB7006E965827001EA11
:10090E007007D2AF7F3D020B6B850883850982E0AD
:10091E00FBA3E0FAA3E0F990001712003F24CAF5FA
:10092E0082E43413F583C083C082E0FF850883859B
:10093E000982E0FBA3E0FAA3E0F990001812003F51
:10094E00F4FEEF5ED082D083F090001712003F24A9
:10095E00CAF582E43413F583E07021901014E0FFA1
:10096E00850883850982E0FBA3E0FAA3E0F99000F5
:10097E001912003FF4FEEF5E901014F08508838587
:10098E000982E0FBA3E0FAA3E0F9900009120392BA
:10099E00E94A4B6033850883850982E0FBA3E0FAC0
:1009AE00A3E0F990000912039290FFFD12041BEBD5
:1009BE00F0A3EAF0A3E9F090000312043FE0FBA3DA
:1009CE00E0FAA3E0F9122080850883850982E0FB16
:1009DE00A3E0FAA3E0F990000F12031F000000003D
:1009EE00900013E412007E900014E412007E90102A
:1009FE0016E0C394FFE494005003E004F0D2AF126B
:100A0E002DD4C2AF901016E0D39400E494004003AE
:100A1E00E014F0850883850982E0FBA3E0FAA3E0E9
:100A2E00F9122C829011C7E014F07B007A00790045
:100A3E0090000312043FE075F003A42468F582E4ED
:100A4E003411F583EBF0A3EAF0A3E9F08508838572
:100A5E000982E0FBA3E0FAA3E0F9900006120392EC
:100A6E00E94A4B7044FBFAF9C003C002C001850885
:100A7E0083850982E0FBA3E0FAA3E0F9900003125C
:100A8E0003929000061203C2850883850982E0FB5B
:100A9E00A3E0FAA3E0F9900003120392901017EB73
:100AAE00F0A3EAF0A3E9F08068850883850982E067
:100ABE00FBA3E0FAA3E0F9900003120392C003C077
:100ACE0002C001850883850982E0FBA3E0FAA3E05A
:100ADE00F99000061203929000031203C285088358
:100AEE00850982E0FBA3E0FAA3E0F9900006120369
:100AFE0092C003C002C001850883850982E0FBA372
:100B0E00E0FAA3E0F990000312039290000612039C
:100B1E00C290115EE0FBA3E0FAA3E0F9C003C002AD
:100B2E00C001850883850982E0FBA3E0FAA3E0F902
:100B3E009000031203C2850883850982E0F9A3E0C1
:100B4E00FAA3E090115EC9F0A3EAF0A3E9F0D2AFE8
:0D0B5E00901015E06401700312283E7F0026
:060B6B0090000402041BCF
:0E215D0090FFFF12041BEFF090FFFC12041B1A
:10216B0090000412043FE0FE640C70057F3E0222D7
:10217B0026EEF47021C2AF901161E0FBA3E0FAA34D
:10218B00E0F990001A12003F850883850982F0D28E
:10219B00AFE0FF022226C2AF90000412043FE075AD
:1021AB00F003A42468F582E43411F583E0F9A3E08D
:1021BB00FAA3E0850883850982A3C9F0A3EAF0A3FB
:1021CB00E9F0850883850982A3E0FBA3E0FAA3E08D
:1021DB004A4B7006D2AF7F438041850883850982C5
:1021EB00A3E0FBA3E0FAA3E0F9E4F583758201EB2E
:1021FB007006E965827001EA7006D2AF7F3D801BE5
:10220B00850883850982A3E0FBA3E0FAA3E0F9909C
:0B221B00001A743F12007ED2AF7F005B
:0622260090000502041BFC
:102D7900901161E0FBA3E0FAA3E0F9122D657FFF52
:032D8900020860DD
:0F1EC40090FFFC12041B1202E290FFFF12041B9E
:101ED300901164E0D39400E494004003021F9C90AB
:101EE3001016E09400E494004003021F9CE4FFFEFC
:101EF300FDFC850883850982A3E0F8A3E0F9A3E04C
:101F0300FAA3E0FB12027D5003021F9CC2AF9011A3
:101F130061E0FBA3E0FAA3E0F990001712003F850C
:101F23000883850982F0E0FF24CAF582E43413F5BF
:101F330083C083C082E0FE901161E0FBA3E0FAA3BB
:101F4300E0F990001812003FF4FDEE5DD082D083DB
:101F5300F074CA2FF582E43413F583E07013901004
:101F630014E0FF90001912003FF4FEEF5E9010148E
:101F7300F0850883850982A3E0FCA3E0FDA3E0FECE
:101F8300A3E0FF901161E0FBA3E0FAA3E0F9900066
:091F93000F1202BED2AF12283E6B
:061F9C0090000502041B89
:101BC60090FFFF12041BEBF090FFFF12041BEDF0D9
:0E1BD60090FFFF12041BEFF090FFFC12041BA7
:101BE400901164E0D39400E4940040057F55021CF6
:101BF400CB901016E0D39400E4940040057F3202A9
:101C04001CCB90000512043FE0FF7E007C007D3C6D
:101C140012044CC004C005C006C00790000412049E
:101C24003FE0FF7E007C0E7D1012044CD003D002F6
:101C3400D001D000EF2BFBEE3AFAED39F9EC38F88D
:101C440090000612043FE0FFE4FCFDFEEB2FFFEEE4
:101C54003AFEED39FDEC38FCE47B32FAF9F8120176
:101C640060C004C005C006C00790000712043FE02E
:101C7400FEA3E0FFEF240AFFE43EFEE433FDE43379
:101C8400FCE47B32FAF9F8120160E47BE87A03F9A8
:101C9400F81201EBD003D002D001D000EB2FFFEA01
:101CA4003EFEE93DFDE83CFC85088385098212027D
:101CB400E2850883850982E0FCA3E0FDA3E0FEA39E
:071CC400E0FF121EC47F00C7
:061CCB0090000902041B59
:102D33000A0A0A0A0A0A0A0A0A0A0A0A0A0A0A0AF0
:0A2D43000A0A0A0A0A0A0A0A0A002C
:02000800C180B5
:102D8C00759850E4F589758BCC758DFF758E40D296
:022D9C008E2285
:102BE6009000067401F0A37400F0A3743EF0F9A3FC
:102BF6007401F0A37400F0A3E9F09000007401F0F2
:102C0600A37400F0A3740CF0F9A37401F0A374008C
:072C1600F0A3E9F0D2AC22AB
:06160D0090FFFD12041B1A
:1016130030997CC299900009E0FBA3E0FAA3E0F9BA
:10162300C003C002C001900006E0FBA3E0FAA3E000
:10163300F9D082D083D0E06B7008E965827003EA49
:1016430065837005D20002174A900009E0FBA3E00E
:10165300FAA3E0F9120026F59990000AE475F00167
:10166300120107900009E0FBA3E0FAA3E0F974017B
:1016730090080E6B7008E965827003EA6583700F4A
:101683007B0190000904F0A37400F0A3743EF020E2
:10169300980302174AC298900000E0F9A3E0FAA366
:1016A300E0850883850982C9F0A3EAF0A3E9F08500
:1016B3000883850982A3E475F00112010785088375
:1016C300850982E0FBA3E0FAA3E0F9740190003EF0
:1016D3006B7008E965827003EA658370108508837F
:1016E30085098204F0A37400F0A3740CF090000346
:1016F300E0FBA3E0FAA3E0F9C003C002C001850840
:1017030083850982E0FBA3E0FAA3E0F9D082D083CA
:10171300D0E06B7008E965827003EA658360289006
:101723000000E0FBA3E0FAA3E0F9E59912006C8561
:101733000883850982E0F9A3E0FAA3E0900000C9D9
:07174300F0A3EAF0A3E9F0B6
:06174A0090000302041BE5
:10252F0090FFFD12041BEBF0A3EAF0A3E9F0C2AF9A
:10253F00900003E0FBA3E0FAA3E0F9C003C002C0E0
:10254F0001900000E0FBA3E0FAA3E0F9D082D08372
:10255F00D0E06B7008E965827003EA65837005D27D
:10256F00AFC3805A900003E0FBA3E0FAA3E0F91297
:10257F000026FF850883850982E0FBA3E0FAA3E02C
:10258F00F9EF12006C900004E475F001120107904E
:10259F000003E0FBA3E0FAA3E0F9740190003E6BA7
:1025AF007008E965827003EA6583700F7B01900004
:1025BF000304F0A37400F0A3740CF0D2AFD3C0D017
:0925CF0090000312041BD0D0227D
:0E1FA20090FFFF12041BEFF090FFFD12041BD6
:101FB000C2AF900006E0F9A3E0FAA3E085088385AC
:101FC0000982C9F0A3EAF0A3E9F0850883850982B4
:101FD000A3E475F001120107850883850982E0FBFF
:101FE000A3E0FAA3E0F9740190080E6B7008E965AC
:101FF000827003EA6583701085088385098204F086
:10200000A37400F0A3743EF0900009E0FBA3E0FA93
:10201000A3E0F9C003C002C001850883850982E0FE
:10202000FBA3E0FAA3E0F9D082D083D0E06B700884
:10203000E965827003EA65837004D2AF803C90004A
:102040000312043FE0FF900006E0FBA3E0FAA3E0E8
:10205000F9EF12006C850883850982E0F9A3E0FAA4
:10206000A3E0900006C9F0A3EAF0A3E9F0D2AF30F4
:0A2070000008C2AFC200D2AFD2993F
:06207A0090000402041BAB
:1023BC0090FFFD12041BEBF0A3EAF0A3E9F090FFF1
:0423CC00FC12041BE0
:1023D000850883850982E4F0A3F085088385098256
:1023E000E0FEA3E0FFC39464EE64809480400302A7
:1023F000247890000412043FE0FBA3E0FAA3E0F984
:102400008F828E8312003FFF90000312043FEFF093
:1024100090000312043FE0605FB40A097F0A121FB4
:10242000A27F0D804090000312043FE0B4092E8586
:102430000883850982A3A3E4F0850883850982A324
:10244000A3E0C3940474809480501D7F20121FA2C7
:10245000850883850982A3A3E004F080DC90000353
:1024600012043FE0FF121FA2850883850982E475EC
:08247000F0011201070223DA5A
:0624780090000702041BA6
:092DC5007BFF7A2D79330223BC57
:1022F6000A09090909092A2A2A2A2A2A2A2A2A2AFD
:102306002A2A2A2A2A2A2A2A2A2A2A2A2A2A2A2A27
:102316002A2A2A2A2A2A0A0009090909092A20201A
:1023260020202020202020202075432F4F532D4988
:102336004920202020202020202020202A0A0009B1
:10234600090909092A2020202020546865205265A1
:10235600616C2D54696D65204B65726E656C20202D
:102366002020202A0A0009090909092A20202020FC
:10237600202075434F535F353120666F72204D43E1
:10238600532D35312020202020202A0A0009090952
:1023960009092A2A2A2A2A2A2A2A2A2A2A2A2A2AD9
:1023A6002A2A2A2A2A2A2A2A2A2A2A2A2A2A2A2A87
:0623B6002A2A0A0A0A00AF
:0C2DB90012000E122D9E122D8C022BE633
:102CE0007BFF7A2279F61223BC7BFF7A23791E12AE
:102CF00023BC7BFF7A2379451223BC7BFF7A23799F
:0D2D00006C1223BC7BFF7A2379930223BC65
:102C1D00596F752063616E20696E707574206279CD
:102C2D0020746865207465726D696E616C210A0A85
:102C3D000A000A000A0A4D626F78526376206572A7
:062C4D0072210A0A0A00D0
:102AEF00122DB990FFFF12041B7402F07B017A0EB6
:102AFF00791490FFFD12041BEBF0A3EAF0A3E9F0A9
:102B0F007B007A00790090FFFD12041BEBF0A3EA23
:102B1F00F0A3E9F07BFF7A19799C1211D2122B33B3
:042B2F00E4FEFF229F
:10199C0090FFFD12041BEBF0A3EAF0A3E9F085081D
:1019AC0083850982E0F9A3E0FAA3E0850883850921
:1019BC0082C9F0A3EAF0A3E9F0D2A97B007A0079FE
:1019CC0000121DD1900A11EBF0A3EAF0A3E9F07B11
:1019DC00007A007900121DD1900A0EEBF0A3EAF008
:1019EC00A3E9F0122CE07BFF7A2C791D1223BC901A
:1019FC00FFFF12041B740AF07B017A0A791490FF22
:101A0C00FD12041BEBF0A3EAF0A3E9F07B007A00D3
:101A1C00790090FFFD12041BEBF0A3EAF0A3E9F0B0
:101A2C007BFF7A2A79A91211D290FFFF12041B7442
:101A3C0004F07B017A08790E90FFFD12041BEBF089
:101A4C00A3EAF0A3E9F07B007A00790090FFFD1285
:101A5C00041BEBF0A3EAF0A3E9F07BFF7A24797E78
:101A6C001211D290FFFF12041B7406F07B017A0C4A
:101A7C00791490FFFD12041BEBF0A3EAF0A3E9F03C
:101A8C007B007A00790090FFFD12041BEBF0A3EAB7
:101A9C00F0A3E9F07BFF7A18797F1211D27FFF1245
:081AAC00086090000302041B16
:102AA90090FFFD12041BEBF0A3EAF0A3E9F08508FF
:102AB90083850982E0F9A3E0FAA3E0850883850903
:102AC90082C9F0A3EAF0A3E9F0C2AFB2E8D2AF90AD
:102AD900FFFE12041BE4F0A374C8F07B007D007FA5
:062AE90000121BC680E391
:10247E0090FFFD12041BEBF0A3EAF0A3E9F090FF2E
:04248E00FE12041B1B
:10249200850883850982A3A3E0F9A3E0FAA3E08576
:1024A2000883850982A3A3C9F0A3EAF0A3E9F07B1C
:1024B20001850883850982A982AA8312252F505695
:1024C2007B01850883850982A982AA8390FFFD1278
:1024D200041BEBF0A3EAF0A3E9F0900A11E0FBA3DE
:1024E200E0FAA3E0F912222C7B0185088385098298
:1024F200A3A982AA8390FFFD12041BEBF0A3EAF0CA
:10250200A3E9F0E4FFFEFDFC900A0EE0FBA3E0FA73
:10251200A3E0F9120B7190FFFE12041BE4F0A37406
:0D25220064F07B007D007F00121BC68082EC
:10187F0090FFFD12041BEBF0A3EAF0A3E9F090FF39
:04188F00FA12041B2A
:1018930090000412043FE4F0A3F090000612043F0A
:1018A300E0FBA3E0FAA3E0F990000612043FEBF09B
:1018B300A3EAF0A3E9F07B0190000312043FA9829D
:1018C300AA8390FFFD12041BEBF0A3EAF0A3E9F057
:1018D300E4FFFEFDFC900A11E0FBA3E0FAA3E0F9AC
:1018E300120B71850883850982EBF0A3EAF0A3E963
:1018F300F090000312043FE070718508838509822C
:10190300E0FBA3E0FAA3E0F9120026FF121FA29066
:10191300000412043FE475F0011201078508838572
:101923000982E0FBA3E0FAA3E0F9120026640D604C
:101933001190000412043FE0FEA3E0FFBEFF0EBFC0
:10194300FF0B90000412043FE4F0A304F0900004A2
:1019530012043FE0FEA3E0FF7C007D451200B2EDE0
:101963004C70117BFF7A2C793F80067BFF7A2C79B0
:10197300411223BC7B007A00790190FFFD12041B06
:10198300EBF0A3EAF0A3E9F0900A0EE0FBA3E0FA80
:09199300A3E0F912222C0218B99C
:1025F800022AEFE493A3F8E493A34003F68001F2E0
:1026080008DFF48029E493A3F85407240CC8C333E3
:10261800C4540F4420C8834004F456800146F6DFB2
:10262800E4800B0102040810204080900008E47E3A
:10263800019360BCA3FF543F30E509541FFEE493A7
:10264800A360010ECF54C025E060A840B8E493A36E
:10265800FAE493A3F8E493A3C8C582C8CAC583CA99
:10266800F0A3C8C582C8CAC583CADFE9DEE780BE51
:01000A0000F5
:10002600BB010689828A83E0225002E722BBFE02D8
:09003600E32289828A83E493220B
:10003F00BB010CE58229F582E5833AF583E0225076
:10004F0006E92582F8E622BBFE06E92582F8E222C0
:0D005F00E58229F582E5833AF583E49322DA
:10006C00BB010689828A83F0225002F722BBFE0173
:02007C00F3226D
:10007E00F8BB010DE58229F582E5833AF583E8F0B8
:10008E00225006E92582C8F622BBFE05E92582C864
:02009E00F2224C
:1000A000EF8DF0A4A8F0CF8CF0A428CE8DF0A42E74
:0200B000FE222E
:1000B200BC000BBE0029EF8DF084FFADF022E4CC32
:1000C200F875F008EF2FFFEE33FEEC33FCEE9DECFB
:1000D200984005FCEE9DFE0FD5F0E9E4CEFD22ED41
:1000E200F8F5F0EE8420D21CFEADF075F008EF2F8B
:1000F200FFED33FD4007985006D5F0F222C398FD7C
:050102000FD5F0EA2218
:10010700C5F0F8A3E028F0C5F0F8E5821582700283
:060117001583E038F02220
:10011D00A3F8E0C5F025F0F0E58215827002158395
:06012D00E0C838F0E822F2
:10013300F8BB0111E58229F582E5833AF583E8F0FE
:10014300E5F0A3F0225009E92582C8F608A6F022BB
:0D015300BBFE09E92582C8F2E5F008F222A2
:10016000E88FF0A4CC8BF0A42CFCE98EF0A42CFC3E
:100170008AF0EDA42CFCEA8EF0A4CDA8F08BF0A4BC
:100180002DCC3825F0FDE98FF0A42CCD35F0FCEB1B
:100190008EF0A4FEA9F0EB8FF0A4CFC5F02ECD39E0
:0F01A000FEE43CFCEAA42DCE35F0FDE43CFC224D
:1001AF0075F008758200EF2FFFEE33FECD33CDCC07
:1001BF0033CCC58233C5829BED9AEC99E58298408A
:1001CF000CF582EE9BFEED9AFDEC99FC0FD5F0D667
:1001DF00E4CEFBE4CDFAE4CCF9A88222B800C1B991
:1001EF000059BA002DEC8BF084CFCECDFCE5F0CBCF
:1001FF00F97818EF2FFFEE33FEED33FDEC33FCEB08
:10020F0033FB10D703994004EB99FB0FD8E5E4F9C2
:10021F00FA227818EF2FFFEE33FEED33FDEC33FCAF
:10022F00C933C910D7059BE99A4007EC9BFCE99AA3
:10023F00F90FD8E0E4C9FAE4CCFB2275F010EF2FE8
:10024F00FFEE33FEED33FDCC33CCC833C810D707E8
:10025F009BEC9AE899400AED9BFDEC9AFCE899F823
:0E026F000FD5F0DAE4CDFBE4CCFAE4C8F922B6
:10027D00EB9FF5F0EA9E42F0E99D42F0E89C45F0D7
:01028D00224E
:10028E00BB010DE58229F582E5833AF583020485EB
:10029E005007E92582F8020479BBFE07E92582F8AA
:1002AE00020491E58229F582E5833AF58302049DE5
:1002BE00BB010DE58229F582E5833AF5830202E260
:1002CE005007E92582F80204ADBBFE07E92582F846
:0402DE000204B9223B
:0C02E200ECF0A3EDF0A3EEF0A3EFF0228F
:1002EE00A8828583F0D083D08212030512030512F3
:1002FE000305120305E473E493A3C583C5F0C58318
:10030E00C8C582C8F0A3C583C5F0C583C8C582C859
:01031E0022BC
:10031F00BB010DE58229F582E5833AF5830202EEF2
:10032F005007E92582F80204C5BBFE07E92582F8CC
:04033F000204DE22B4
:10034300BB011A89828A83D0F0D0E0F8D0E0F9D0DB
:10035300E0FAD0E0FBE8C0E0C0F00205125016E975
:10036300F8D083D082D0E0F9D0E0FAD0E0FBC082AD
:10037300C083020500BBFE16E9F8D083D082D0E02B
:0F038300F9D0E0FAD0E0FBC082C083020524224B
:10039200BB010DE58229F582E5833AF58302050961
:1003A2005007E92582F80204F7BBFE07E92582F827
:1003B20002051BE58229F582E5833AF58302052DC4
:1003C200BB0120E58229F582E5833AF583D0F0D09E
:1003D200E0F8D0E0F9D0E0FAD0E0FBE8C0E0C0F00D
:1003E2000205125018E92582F8D083D082D0E0F9B4
:1003F200D0E0FAD0E0FBC082C083020500BBFE1849
:10040200E92582F8D083D082D0E0F9D0E0FAD0E0BA
:09041200FBC082C0830205242214
:10041B00E5092582F582E5083583F583B508048562
:10042B0082092210AF06858209F50822858209F51B
:04043B0008D2AF2212
:0D043F00E5092582F582E5083583F5832265
:10044C00EC8EF0A4CCC5F0CCCDF8EFA4CEC5F02D3D
:10045C00FDE43CFCE8A42EC8C5F03DFDE43CFCEFFB
:0D046C00A4FFE5F028FEE43DFDE43CFC2289
:0C047900E6FC08E6FD08E6FE08E6FF22AF
:0C048500E0FCA3E0FDA3E0FEA3E0FF22EA
:0C049100E2FC08E2FD08E2FE08E2FF22A7
:10049D00E493FC740193FD740293FE740393FF22A5
:0C04AD00ECF608EDF608EEF608EFF6227B
:0C04B900ECF208EDF208EEF208EFF2227F
:1004C500D083D082E493F608740193F608740293FE
:0904D500F608740393F674047335
:1004DE00D083D082E493F208740193F208740293ED
:0904EE00F208740393F274047324
:0904F700E6FB08E6FA08E6F9222A
:09050000EBF608EAF608E9F62220
:09050900E0FBA3E0FAA3E0F922F3
:09051200EBF0A3EAF0A3E9F022EA
:09051B00E2FB08E2FA08E2F92211
:09052400EBF208EAF208E9F22208
:0C052D00E493FB740193FA740293F9222A
:00000001FF
