:03000000020E608D
:100E600078FFE4F6D8FD9000007FFF7E00E4F0A359
:100E7000DFFCDEFA750820750900758120020EBBC3
:1012730012006C850883850982E0FBA3E475F00105
:101283001200B6A9F0FAE412006C8508838509827E
:10129300E0FBA3E475F0011200B6A9F0FA22EF1205
:1012A300006C9000090203ABEBF0A3EAF0A3E9F0B2
:0C12B3002212006C9000031203ABA32277
:0F09140090FFFD1203871212AB90FFFD120387B5
:100923009000061203ABE0FBA3E0FAA3E0F990000A
:10093300061203AB1212AB90000C1203ABE0FEA342
:10094300E0FF90000C1203ABEEF0A3EFF01212A540
:10095300E0F9A3E0FAA3E0850883850982C91212AE
:10096300AC12128D740F1212B4A3E0FF12128DEFAA
:100973001212B4E0FAEAFF12128DEF121273740A24
:1009830012128A740B121273E4121273740112128C
:100993008A740212128A740312128A740412128A5B
:1009A300740512128A740612128A74071212A2A311
:1009B300E0FAA3E02408E43AFF12128D1212A1A375
:1009C300A3E02408F9AF0112128D1212A1E0FBA3D8
:0509D300E0FAA3E0F9C9
:0609D80090000E020387EF
:0E166400758903758AC0758C63D28CD2A92259
:10116F0012000090080F7401F090086BA3E0F8A331
:10117F00E0F5828883A3E0F8A3E0F988838982E011
:10118F00FD7821A308E0F6DDFA8881A3E0F508A336
:10119F00E0F509D0E0FFD0E0FED0E0FDD0E0FCD0DC
:1011AF00E0FBD0E0FAD0E0F9D0E0F8D083D082D0E5
:0811BF00F0D0E0D0D0D2AF3235
:10101100C0D0C0E0C0F0C082C083E8C0E0E9C0E059
:10102100EAC0E0EBC0E0ECC0E0EDC0E0EEC0E0EF14
:10103100C0E0E581C39421FD900867A3E0F8A3E037
:10104100F5828883A3E0F8A3E0F988838982EDF033
:101051007821A308E6F0DDFAA3E508F0A3E509F09D
:1010610012000090086BE0900867F090086BA3E015
:10107100900867A3F090086BA3A3E0900867A3A36F
:0C108100F09008A7E090089EF0021178A3
:0D167200E581C39404F581120000021033DD
:03000B000211C718
:1011C700C2AFC0D0C0E0C0F0C082C083E8C0E0E9D1
:1011D700C0E0EAC0E0EBC0E0ECC0E0EDC0E0EEC08C
:1011E700E0EFC0E012163EC28C120C37D28C1213FD
:1011F7004FD0E0FFD0E0FED0E0FDD0E0FCD0E0FB38
:10120700D0E0FAD0E0F9D0E0F8D083D082D0F0D0A7
:06121700E0D0D0D2AF329E
:0300230002121DA9
:10121D00C2AFC0D0C0E0C0F0C082C083E8C0E0E97A
:10122D00C0E0EAC0E0EBC0E0ECC0E0EDC0E0EEC035
:10123D00E0EFC0E012163EC2AC1209DED2AC1213C2
:10124D004FD0E0FFD0E0FED0E0FDD0E0FCD0E0FBE1
:10125D00D0E0FAD0E0F9D0E0F8D083D082D0F0D051
:06126D00E0D0D0D2AF3248
:10064400000001000200010003000100020001009B
:100654000400010002000100030001000200010087
:100664000500010002000100030001000200010076
:100674000400010002000100030001000200010067
:100684000600010002000100030001000200010055
:100694000400010002000100030001000200010047
:1006A4000500010002000100030001000200010036
:1006B4000400010002000100030001000200010027
:1006C4000700010002000100030001000200010014
:1006D4000400010002000100030001000200010007
:1006E40005000100020001000300010002000100F6
:1006F40004000100020001000300010002000100E7
:1007040006000100020001000300010002000100D4
:1007140004000100020001000300010002000100C6
:1007240005000100020001000300010002000100B5
:1007340004000100020001000300010002000100A6
:10074400E0FF850883850982E0FBA3E0FAA3E0F9D2
:100754002290FFFD120387EBF0A3EAF0A3E9F02255
:10076400E0F9A3E0FAA3E0850883850982229008D2
:10077400A7E0FF75F003A4246EF582E43408F58342
:100784002290001312003FFEEF4E90080EF09000EE
:100794001112003F24A8F582E43408F5832290085E
:1007A40095E0FCA3E0FDA3E0FEA3E02401FFE43E0A
:1007B400FEE43DFDE43CFC90089502024EE0FBA300
:1007C400E475F0011200B6A9F0FA22E075F014A461
:1007D4002414F9740835F0FA229000030203AB9054
:1007E40000091201FAE4FBFAF9F8C30201E990FFE7
:1007F400FF020387E0F9A3E0FAA3E0221203ABE0CF
:10080400FEA3E02290001212003FFEEF4E227B0076
:100814007A00790022E0FBA3E0FAA3E04A4B22FF2E
:100824001203ABEEF0A3EFF02212003FFF7401A815
:0308340007082290
:10000E001200001215721212BF120CFB12169E1263
:05001E0015DA020000EC
:10163E0090080FE0B4010C90086AE0C394FF5003C9
:04164E00E004F022A2
:10134F0090080FE06401703BC2AF90086AE0D3943D
:10135F00004003E014F090086AE07025900810E058
:10136F00701F12149C1207721207F890086BC912A3
:10137F00075C90089EE0FEEF6E60061207A2121641
:04138F0072D2AF2245
:10154B0090080FE0702012149C9008A7E090089E62
:10155B00F012077712074C90086B12075B90086725
:07156B0012075B12116F2251
:060C370090FFFD1203878F
:100C3D0090080FE064016003020CF5900811120793
:100C4D0064C912075C12074690000F12003F640C36
:100C5D007003020CF5C2AF1207E3607812074690DD
:100C6D0000091201FAEF24FFFFEE34FFFEED34FF11
:100C7D00FDEC34FFFC90000912022A1207E37054B8
:100C8D0012074690000D12003F54376019E9240DEC
:100C9D00F9E43AFA12002654C812006C1207469075
:100CAD00000E7401800712074690000EE412007EBC
:100CBD0012074690000D12003F5408701790080E51
:100CCD00E0FF120785C083C082120744120808D0C6
:100CDD0082D083F01207469000031202FE12076BBA
:080CED0012075BD2AF020C52AA
:060CF500900003020387DA
:050003007E017F2322B5
:01169E002229
:10157200E490086AF0900810F090089DF090080F2F
:10158200F090089512025A00000000900899120289
:061592005A0000000022D7
:0312BF001207F221
:1012C200E490080EF012076BF012076BE0FFC39474
:1012D20002501074A82F12079AE4F012076BE00470
:1012E200F080E6E490089EF09008A7F0F990086B71
:1012F200C9F0A3F0A3E9F0900867E4F0A3F0A3F02B
:06130200900001020387C8
:1015DA001207F2740CF07B017A08799F12075512F0
:0E15EA0008121207557BFF7A147906020AA830
:060CFB0090FFF8120387D0
:100D01007C007D507B017A0879141213CD7C007D23
:100D1100277B017A08796E1213CD12076BE4F0126A
:100D2100076BE0C39403504BE0FF04A3F0EF1207FD
:100D3100D012076BA3A3740112075C12076BA312F5
:100D410007CF7B019000051203AB12075B900005F2
:100D51001203AB12074CC003C002C00112076BA300
:100D6100A312074C90000312032E12076BE004F04C
:100D7100020D2012076B1207CFA3A3740112075CA7
:100D8100120812C003C002C00112076BA3A312070D
:100D91004C90000312032E900811E4F0A3F0A3F08D
:0F0DA1007B0190086404F0A37408F0A37414F0AD
:060DB00090000802038719
:1013CD0090FFFE120387ECF0A3EDF0120755120704
:1013DD00DDE0FEA3E0D39400EE9400401612076BFF
:1013ED001207C1E412006C1207DD74FFF5F0120054
:0913FD00A080DB900005020387CB
:10139300120755900006120800D39400EE94004003
:1013A300231207DD1207C1120026FF12076B120773
:1013B300C1EF12006C9000061203AB74FFF5F0123C
:0A13C30000A080CF9000080203870D
:10146C00C2AF90086AE07025900810E0701F12144B
:10147C009C1207721207F890086BC912075C90084F
:10148C009EE0FEEF6E60061207A2121011D2AF2280
:03149C001207F242
:10149F0090080EE09006449312076BF0E0FF1207DE
:1014AF0098E090064493FEEF33333354F8FFEE2F5A
:0414BF009008A7F0FA
:0614C30090000102038706
:1014060012075512076B120764C912075CC2AF9028
:101416000899E0FCA3E0FDA3E0FEA3E02401FFE4BD
:101426003EFEE43DFDE43CFC90089912024ED2AF2C
:0514360012000080D847
:0E04A5001207551207F2EFF090FFFD120387C9
:1004B300C2AF900864120764C912075C12076B127B
:1004C3000819700302063A1207469000031202FE4F
:1004D30090086412075BD2AF9000041203AB1207BB
:1004E3004CC003C002C0011207461202AF1207DD5F
:1004F30012074490000FEF12007E90000DE41200EB
:100503007E90000EE412007E90000912028B000020
:1005130000009000101203AB12074C90001012035E
:10052300AB12075B90000C1203ABE0FCA3E0FDA34E
:10053300E0FEA3E0FF90000C1203AB12024E90000A
:10054300071203AB12074C9000071203AB12075BB1
:1005530090001312080090001312082390000A124F
:10056300080090000A1208231207DDE0FF1313139B
:10057300541FFE120746900011EE12007EEF54073F
:1005830090001012007E90001112082D8002C333D8
:10059300D8FC90001312007E90001012082D8002E8
:1005A300C333D8FC90001212007E120000120746DB
:1005B300120000C2AF1207461207DDE012077712DE
:1005C300075B90081112074CC003C002C001120759
:1005D3004690000312032E120812C003C002C0018A
:1005E30012074690000612032E9008111208196094
:1005F30015120746C003C002C00190081112074C30
:1006030090000612032E12076B1207F8900811C907
:1006130012075C90080E120744120785C083C0823C
:10062300120744120808D082D083F090089DE0049A
:0B063300F0D2AF7F008004D2AF7F4206
:06063E0090001502038785
:1013080090000C1203ABE0FBA3E0FAA3E0F990FF16
:10131800FD120387EBF0A3EAF0A3E9F02275F003CE
:10132800A4246EF582E43408F583221203ABE0FBB3
:10133800A3E0FAA3E02290FFFE120387E4F0A3F0F3
:07134800229000030203AB39
:090AA80012131690FFFC120387E3
:100AB100C2AF90086AE0D394004007D2AF7F3C02F6
:100AC1000B6B90000D1203ABE0FF121325121336CE
:100AD1004A4B6003020B677901EF121325E4F0A37F
:100AE100F0A304F0D2AF12133E12130812130890B0
:100AF100000C121333F91209148508838509821237
:100B0100131C12133EFBFA12131590FFFC120387FC
:100B110012025A0000000012133EFBFA1213159044
:100B2100000E121333F990001B1203ABE0FF120405
:100B3100A5121349EFF0121349E0700C90080FE071
:100B4100B4011C12146C8017C2AF7B007A007900CB
:100B510090000D1203ABE012132512131CD2AF1239
:0A0B61001349E0FF8004D2AF7F28A3
:060B6B0090000E0203875A
:10162900900867121336F9120000E47FC8FEFDFC2A
:05163900120DB680F562
:10143B00900867E0FBA3E0FAA3E0F922FC850883A0
:10144B0085098222F090FFFF020387E0FCA3E0FDF9
:10145B00A3E0FEA3E0FF22FCE47BC8FAF9F802004C
:01146B00CCB4
:0C0DB60090FFFC12038712024E12145032
:100DC20090086AE0D394004003020E5A900810E0A3
:100DD200D394004003020E5AE4FFFEFD121447A30F
:100DE200E0F8A3E0F9A3E0FAA3E0FBD31201E940A3
:100DF20067C2AF12143B90001112003F121448F068
:100E0200E0FF24A8F582E43408F583C083C082E0C1
:100E1200FE12143B90001212003FF4FDEE5DD082F0
:100E2200D083F074A82FF582E43408F583E07013C0
:100E320090080EE0FF90001312003FF4FEEF5E9068
:100E4200080EF0121448A312145612143B90000913
:080E520012022AD2AF12146C47
:060E5A0090000502038771
:10083700121450EB12144FED12144FEFF090FFFC0F
:0308470012038712
:10084A0090086AE0D3940040057F5502090E90088B
:10085A0010E0D3940040057F3202090E9000051281
:10086A0003ABE0FF7E007C007D3C1203B8C004C0ED
:10087A0005C006C0079000041203ABE0FF7E007CAF
:10088A000E7D101203B8D003D002D001D000EF2B96
:10089A00FBEE3AFAED39F9EC38F89000061203ABA0
:1008AA00E0FFE4FCFDFEEB2FFFEE3AFEED39FDEC36
:1008BA0038121462C004C005C006C00790000712AF
:1008CA0003ABE0FEA3E0FFEF2402FFE43EFEE433C5
:1008DA00FDE433121462E47BE87A03F9F812015753
:1008EA00D003D002D001D000EB2FFFEA3EFEE93D53
:1008FA00FDE83C12144712024E1214481214561202
:04090A000DB67F00A7
:06090E00900009020387BE
:1015F8000A0A0A0A0A0A0A0A0A0A0A0A0A0A0A0A43
:0A1608000A0A0A0A0A0A0A0A0A007E
:02000800C180B5
:10110100E0F9A3E0FAA3E0850883850982C9F0A389
:10111100EAF0A3E9F0850883850982A3E475F0016B
:101121001200A0850883850982E0FBA3E0FAA3E011
:10113100F92212006C8508838509822290FFFD1235
:101141000387EBF0A3EAF0A3E9F02204F0A3740013
:10115100F0A3743EF02204F0A37400F0A3740CF029
:0E116100229000030203ABE475F0010200A02F
:10165200759850E4F589758BCC758DFF758E40D2E7
:021662008E22D6
:1014F600900006740112114DF9A37401F0A3740053
:10150600F0A3E9F09000007401121158F9A37401D8
:0B151600F0A37400F0A3E9F0D2AC22B7
:0609DE0090FFFD120387EB
:1009E40030995DC29990000912112AC003C002C057
:1009F4000190000612112AD082D083D0E06B7008D7
:100A0400E965827003EA65837005D200020AA29048
:100A1400000912112A120026F59990000A12116891
:100A240090000912112A740190080E6B7008E96590
:100A3400827003EA658370087B0190000912114CEF
:100A440030985BC298900000121101740190003E2E
:100A54006B7008E965827003EA65837006121136CB
:100A640012115790000312112AC003C002C00112D0
:100A74001124D082D083D0E06B7008E965827003C2
:100A8400EA6583601990000012112AE59912113366
:0E0A9400E0F9A3E0FAA3E0900000C9121144BB
:060AA2009000030203872F
:10108D0012113DC2AF90000312112AC003C002C05D
:10109D000190000012112AD082D083D0E06B70082D
:1010AD00E965827003EA65837005D2AFC3803A901B
:1010BD00000312112A120026FF121124EF12006CE8
:1010CD0090000412116890000312112A740190000F
:1010DD003E6B7008E965827003EA658370087B01D9
:1010ED00900003121157D2AFD3C0D090000312035A
:0410FD0087D0D022A6
:0E0F8D0090FFFF120387EFF090FFFD12038725
:100F9B00C2AF900006121101740190080E6B70081D
:100FAB00E965827003EA6583700612113612114CE3
:100FBB0090000912112AC003C002C001121124D0E3
:100FCB0082D083D0E06B7008E965827003EA658399
:100FDB007004D2AF802A121162E0FF90000612114A
:100FEB002AEF121133E0F9A3E0FAA3E0900006C94F
:100FFB00121144D2AF300008C2AFC200D2AFD299A7
:06100B00900004020387BF
:090F000012113D90FFFC12038761
:100F0900121136E4F0A3F0121136E0FEA3E0FFC39C
:100F19009464EE6480948050659000041203AB12CF
:100F2900112A8F828E8312003FFF121162EFF01295
:100F39001162E0FF70028046EFB40A097F0A120FBE
:100F49008D7F0D802D121162E0B40921121136A393
:100F5900A3E4F0121136A3A3E0C3940450177F2031
:100F6900120F8D121136A3A3E004F080E61211626C
:0E0F7900E0FF120F8D121136121168020F10D8
:060F870090000702038741
:091695007BFF7A1579F8020F00C1
:100B71000A09090909092A2A2A2A2A2A2A2A2A2A99
:100B81002A2A2A2A2A2A2A2A2A2A2A2A2A2A2A2AC4
:100B91002A2A2A2A2A2A0A0009090909092A2020B7
:100BA10020202020202020202075432F4F532D4925
:100BB1004920202020202020202020202A0A00094E
:100BC100090909092A20202020205468652052653E
:100BD100616C2D54696D65204B65726E656C2020CA
:100BE1002020202A0A0009090909092A2020202099
:100BF100202075434F535F353120666F72204D437E
:100C0100532D35312020202020202A0A00090909EE
:100C110009092A2A2A2A2A2A2A2A2A2A2A2A2A2A75
:100C21002A2A2A2A2A2A2A2A2A2A2A2A2A2A2A2A23
:060C31002A2A0A0A0A004B
:0C167F0012000E1216641216520214F62D
:1014C9007BFF7A0B7971120F007BFF7A0B799912E6
:1014D9000F007BFF7A0B79C0120F007BFF7A0B7923
:0D14E900E7120F007BFF7A0C790E020F0056
:10159800596F752063616E20696E70757420627969
:1015A80020746865207465726D696E616C210A0A21
:0215B8000A0027
:1015210090FFFD120387EBF0A3EAF0A3E9F0850831
:1015310083850982E0F9A3E0FAA3E08508838509A0
:0A15410082C9F0A3EAF0A3E9F0224A
:0A168B0012167F12154BE4FEFF2239
:10161200121521D2A91214C97BFF7A157998120FDB
:0716220000900003020387A2
:1015BA00121521C2AFB2E8D2AF90FFFE120387E440
:1015CA00F0A374C8F07B007D007F0012083780E327
:100E800002168BE493A3F8E493A34003F68001F2E7
:100E900008DFF48029E493A3F85407240CC8C33373
:100EA000C4540F4420C8834004F456800146F6DF42
:100EB000E4800B0102040810204080900008E47ECA
:100EC000019360BCA3FF543F30E509541FFEE49337
:100ED000A360010ECF54C025E060A840B8E493A3FE
:100EE000FAE493A3F8E493A3C8C582C8CAC583CA29
:100EF000F0A3C8C582C8CAC583CADFE9DEE780BEE1
:01000A0000F5
:10002600BB010689828A83E0225002E722BBFE02D8
:09003600E32289828A83E493220B
:10003F00BB010CE58229F582E5833AF583E0225076
:10004F0006E92582F8E622BBFE06E92582F8E222C0
:0D005F00E58229F582E5833AF583E49322DA
:10006C00BB010689828A83F0225002F722BBFE0173
:02007C00F3226D
:10007E00F8BB010DE58229F582E5833AF583E8F0B8
:10008E00225006E92582C8F622BBFE05E92582C864
:02009E00F2224C
:1000A000C5F0F8A3E028F0C5F0F8E58215827002EB
:0600B0001583E038F02288
:1000B600A3F8E0C5F025F0F0E582158270021583FD
:0600C600E0C838F0E8225A
:1000CC00E88FF0A4CC8BF0A42CFCE98EF0A42CFCD3
:1000DC008AF0EDA42CFCEA8EF0A4CDA8F08BF0A451
:1000EC002DCC3825F0FDE98FF0A42CCD35F0FCEBB0
:1000FC008EF0A4FEA9F0EB8FF0A4CFC5F02ECD3975
:0F010C00FEE43CFCEAA42DCE35F0FDE43CFC22E1
:10011B0075F008758200EF2FFFEE33FECD33CDCC9B
:10012B0033CCC58233C5829BED9AEC99E58298401E
:10013B000CF582EE9BFEED9AFDEC99FC0FD5F0D6FB
:10014B00E4CEFBE4CDFAE4CCF9A88222B800C1B925
:10015B000059BA002DEC8BF084CFCECDFCE5F0CB63
:10016B00F97818EF2FFFEE33FEED33FDEC33FCEB9C
:10017B0033FB10D703994004EB99FB0FD8E5E4F957
:10018B00FA227818EF2FFFEE33FEED33FDEC33FC44
:10019B00C933C910D7059BE99A4007EC9BFCE99A38
:1001AB00F90FD8E0E4C9FAE4CCFB2275F010EF2F7D
:1001BB00FFEE33FEED33FDCC33CCC833C810D7077D
:1001CB009BEC9AE899400AED9BFDEC9AFCE899F8B8
:0E01DB000FD5F0DAE4CDFBE4CCFAE4C8F9224B
:1001E900EB9FF5F0EA9E42F0E99D42F0E89C45F06C
:0101F90022E3
:1001FA00BB010DE58229F582E5833AF5830203F115
:10020A005007E92582F80203E5BBFE07E92582F8D3
:10021A000203FDE58229F582E5833AF583020409A2
:10022A00BB010DE58229F582E5833AF58302024E88
:10023A005007E92582F8020419BBFE07E92582F86E
:04024A000204252263
:0C024E00ECF0A3EDF0A3EEF0A3EFF02223
:10025A00A8828583F0D083D08212027112027112B1
:10026A000271120271E473E493A3C583C5F0C583D6
:10027A00C8C582C8F0A3C583C5F0C583C8C582C8EE
:01028A002251
:10028B00BB010DE58229F582E5833AF58302025A1B
:10029B005007E92582F8020431BBFE07E92582F8F5
:0402AB0002044A22DD
:1002AF00BB011A89828A83D0F0D0E0F8D0E0F9D070
:1002BF00E0FAD0E0FBE8C0E0C0F002047E5016E99F
:1002CF00F8D083D082D0E0F9D0E0FAD0E0FBC08242
:1002DF00C08302046CBBFE16E9F8D083D082D0E055
:0F02EF00F9D0E0FAD0E0FBC082C0830204902275
:1002FE00BB010DE58229F582E5833AF5830204758B
:10030E005007E92582F8020463BBFE07E92582F84F
:10031E00020487E58229F582E5833AF58302049982
:10032E00BB0120E58229F582E5833AF583D0F0D032
:10033E00E0F8D0E0F9D0E0FAD0E0FBE8C0E0C0F0A1
:10034E0002047E5018E92582F8D083D082D0E0F9DD
:10035E00D0E0FAD0E0FBC082C08302046CBBFE1872
:10036E00E92582F8D083D082D0E0F9D0E0FAD0E04F
:09037E00FBC082C083020490223E
:10038700E5092582F582E5083583F583B5080485F7
:1003970082092210AF06858209F50822858209F5B0
:0403A70008D2AF22A7
:0D03AB00E5092582F582E5083583F58322FA
:1003B800EC8EF0A4CCC5F0CCCDF8EFA4CEC5F02DD2
:1003C800FDE43CFCE8A42EC8C5F03DFDE43CFCEF90
:0D03D800A4FFE5F028FEE43DFDE43CFC221E
:0C03E500E6FC08E6FD08E6FE08E6FF2244
:0C03F100E0FCA3E0FDA3E0FEA3E0FF227F
:0C03FD00E2FC08E2FD08E2FE08E2FF223C
:10040900E493FC740193FD740293FE740393FF2239
:0C041900ECF608EDF608EEF608EFF6220F
:0C042500ECF208EDF208EEF208EFF22213
:10043100D083D082E493F608740193F60874029392
:09044100F608740393F6740473C9
:10044A00D083D082E493F208740193F20874029381
:09045A00F208740393F2740473B8
:09046300E6FB08E6FA08E6F922BE
:09046C00EBF608EAF608E9F622B5
:09047500E0FBA3E0FAA3E0F92288
:09047E00EBF0A3EAF0A3E9F0227F
:09048700E2FB08E2FA08E2F922A6
:09049000EBF208EAF208E9F2229D
:0C049900E493FB740193FA740293F922BF
:00000001FF
