:1001DA002A2A2A2A2A2A2A2A2A2A2A2A2A2A2A2A75
:1001EA002A2A2A2A2A2A2A2A2A2A2A2A2A0D0A00CC
:1001FA00202020202020202068656C6C6F207361ED
:10020A006D706C65206F732020202020200D0A005D
:10021A00202020202020202076302E31202020204F
:10022A00202020202020202020202020200D0A000D
:10023A002020202020202020323032302E31302E33
:10024A00313320202020202020202020200D0A00C9
:0A04B000E4F591F5927F010202FBD2
:0C048900E4F5147F0A1200BC05140514F1
:010495002244
:10000E00C2941204897FB81200BCD2947FB8120039
:03001E00BC80EDB6
:1002B9007FE81200BC7BFF7A0179DA1204647BFFC4
:1002C9007A0179FA1204647BFF7A02791A120464BA
:1002D9007BFF7A02793A1204647BFF7A0179DA1298
:1002E9000464C2957F641200BCD2957F641200BC7D
:0202F90080F093
:10039B001204B012040F7518357BFF7A0279B97FFE
:1003AB000112025A7518217BFF7A00790EE4FF12B5
:0903BB00025A1203C4E4FEFF2201
:0C04A30008090102040810204080C1007C
:10040F00C2AFD2A95389F0438901758CEEE4F58A06
:10041F00F511F5127518717BFF7A0079077F0202CB
:02042F00025A6F
:0200070080FE79
:08025A008F148B158A16891719
:100262001204BA8F19AE16AF17AD07A818A605EE7D
:10027200FFE51804F8A607E51425E025E0249BF81D
:10028200A618E51804FF1203EAE51425E025E02488
:100292009AF8A607E51425E025E02499F8E4F6E5A6
:1002A2001425E025E0249CF8E4F674092514F8E608
:0702B2004212AF1902000324
:1003C400E4FF74092FF8E6551270040FBF03F38F8E
:1003D40008D2AFAF08EF25E025E0249BF8E604F54A
:0503E40081D28CD20063
:0103E90022F1
:0F047A0030000BAF11C374809481500205112222
:0D049600300009E511C39401400215112248
:0904BA00AFA875A800227F002202
:040003008FA822227E
:1003EA0085811A8F81C0E0C0F0C083C082C0D0C0AE
:1003FA0000C001C002C003C004C005C006C007AFE8
:05040A0081851A81222A
:1000BC008F15E515D39400500302014DC2AFC0E07B
:1000CC00C0F0C083C082C0D0C000C001C002C00359
:1000DC00C004C005C006C007AF08EF25E025E0242A
:1000EC009AF8A681AF08EF25E025E02499F8A6152B
:1000FC00AF08EF25E025E0249CF87601E4FF7409B5
:10010C002FF8E65512600BEF25E025E0249CF8E66D
:10011C0060040FBF03E88F08AF08EF25E025E0244B
:10012C009AF8E6F581D007D006D005D004D003D0DC
:10013C0002D001D000D0D0D082D083D0F0D0E0D289
:02014C00AF22E0
:10033C00E4FFEF25E025E02499F8E6601EEF25E0C8
:10034C0025E02499F816EF25E025E02499F8E670CD
:10035C000AEF25E025E0249CF8E4F60FBF03D32236
:03000B00020026CA
:10002600C0E0C0F0C083C082C0D075D000C000C0A0
:1000360001C002C003C004C005C006C00730005B93
:100046001204BA8F1312047A12033CE5116401708C
:100056003AAF08EF25E025E0249AF8A681E4FF747C
:10006600092FF8E65512600BEF25E025E0249CF8F1
:10007600E660040FBF03E8E5086F600F8F08AF085E
:10008600EF25E025E0249AF8E6F581C28D758CEE21
:10009600758A00120496AF13120003D007D006D05B
:1000A60005D004D003D002D001D000D0D0D082D069
:0600B60083D0F0D0E0321F
:1004640012044B6010F599D2012001FD740129F9A1
:06047400E43AFA80EB22DD
:10043100AD07AC06538EEF538EF7438E048CD6AFC7
:0A044100058FD753AFFB438E102246
:1002FB00BF020C438E017FE87EFF120431801BC2CC
:10030B008E538EFE438E405389BF5389CF758DFF1D
:10031B00758BE8C2AB538FFDD28EE598543F4440AA
:10032B00F598D2ACD29C53A23FC201E4F51CF51B4D
:01033B00229F
:0300230002036C69
:10036C00C0E0C0D075D000C000309815C29874A5FC
:10037C00251BF8A699051BE51BC394404003751B70
:0F038C0000309904C299C201D000D0D0D0E03225
:0300000002014EAC
:0C014E00787FE4F6D8FD7581E40201958D
:10044B00BB010689828A83E0225002E722BBFE02AF
:09045B00E32289828A83E49322E2
:10015A0002039BE493A3F8E493A34003F68001F21D
:10016A0008DFF48029E493A3F85407240CC8C333A6
:10017A00C4540F4420C8834004F456800146F6DF75
:10018A00E4800B01020408102040809004A3E47E5E
:10019A00019360BCA3FF543F30E509541FFEE4936A
:1001AA00A360010ECF54C025E060A840B8E493A331
:1001BA00FAE493A3F8E493A3C8C582C8CAC583CA5C
:1001CA00F0A3C8C582C8CAC583CADFE9DEE780BE14
:0104AF00004C
:00000001FF
