:06000300E4F591F59222E4
:0C031900E4F5147F0A1200A4051405147A
:0103250022B5
:1002E700C2941203197FB81200A4D2947FB81200E7
:0302F700A480EDF3
:1002FA00C2957F641200A4D2957F641200A480F094
:100251001200031202C57518357BFF7A0279FA7F05
:10026100011201C27518217BFF7A0279E7E4FF12BE
:0902710001C212027AE4FEFF2230
:0C03330008090102040810204080C100ED
:1002C500C2AFD2A95389F0438901758CEEE4F58A52
:1002D500F511F5127518717BFF7A0079097F020215
:0202E50001C254
:0200090080FE77
:0801C2008F148B158A168917B2
:1001CA001203408F19AE16AF17AD07A818A605EE91
:1001DA00FFE51804F8A607E51425E025E0249BF8B6
:1001EA00A618E51804FF1202A0E51425E025E0246C
:1001FA009AF8A607E51425E025E02499F8E4F6E53F
:10020A001425E025E0249CF8E4F674092514F8E6A0
:07021A004212AF1902034973
:10027A00E4FF74092FF8E6551270040FBF03F38FD9
:10028A0008D2AFAF08EF25E025E0249BF8E604F595
:05029A0081D28CD200AE
:01029F00223C
:0F030A0030000BAF11C374809481500205112293
:0D032600300009E511C394014002151122B9
:09034000AFA875A800227F00227D
:040349008FA8222235
:1002A00085811A8F81C0E0C0F0C083C082C0D0C0F9
:1002B00000C001C002C003C004C005C006C007AF33
:0502C00081851A812276
:1000A4008F15E515D394005003020135C2AFC0E0AB
:1000B400C0F0C083C082C0D0C000C001C002C00371
:1000C400C004C005C006C007AF08EF25E025E02442
:1000D4009AF8A681AF08EF25E025E02499F8A61543
:1000E400AF08EF25E025E0249CF87601E4FF7409CD
:1000F4002FF8E65512600BEF25E025E0249CF8E686
:1001040060040FBF03E88F08AF08EF25E025E02463
:100114009AF8E6F581D007D006D005D004D003D0F4
:1001240002D001D000D0D0D082D083D0F0D0E0D2A1
:02013400AF22F8
:10022100E4FFEF25E025E02499F8E6601EEF25E0E4
:1002310025E02499F816EF25E025E02499F8E670E9
:100241000AEF25E025E0249CF8E4F60FBF03D32252
:03000B0002000EE2
:10000E00C0E0C0F0C083C082C0D075D000C000C0B8
:10001E0001C002C003C004C005C006C00730005BAB
:10002E001203408F1312030A120221E511640170AC
:10003E003AAF08EF25E025E0249AF8A681E4FF7494
:10004E00092FF8E65512600BEF25E025E0249CF809
:10005E00E660040FBF03E8E5086F600F8F08AF0876
:10006E00EF25E025E0249AF8E6F581C28D758CEE39
:10007E00758A00120326AF13120349D007D006D09B
:10008E0005D004D003D002D001D000D0D0D082D081
:06009E0083D0F0D0E03237
:03000000020136C4
:0C013600787FE4F6D8FD7581A402017DFD
:10014200020251E493A3F8E493A34003F68001F280
:1001520008DFF48029E493A3F85407240CC8C333BE
:10016200C4540F4420C8834004F456800146F6DF8D
:10017200E4800B0102040810204080900333E47EE7
:10018200019360BCA3FF543F30E509541FFEE49382
:10019200A360010ECF54C025E060A840B8E493A349
:1001A200FAE493A3F8E493A3C8C582C8CAC583CA74
:1001B200F0A3C8C582C8CAC583CADFE9DEE780BE2C
:01033F0000BD
:00000001FF
