:10000300DBDE5DEF5DEF7DEF5DEF5DEF5DEF5DEF00
:100013005DEF5DEF5DEF5DEF5DEF5DEF5DEFBEF714
:10002300FFFFDEFF38C6928C8E6B6E6B107C96AD35
:100033003CE7FFFFFFFF7DEF5DEF5DEF5DEF5DEF02
:100043005DEF5DEF5DEF5DEF5DEF5DEF5DEF5DEF4D
:100053005DEFFFFFFFFFFFFFFFFFFFFFFFFFFFFF5F
:10006300FFFFFFFFFFFFFFFFFFFFFFFFFFFF5DEF4F
:10007300159D4F636C420A3288294619251945217B
:10008300E8318E6B18BEFFFFFFFFFFFFFFFFFFFF8F
:10009300FFFFFFFFFFFFFFFFFFFFFFFFFFFFFFFF6D
:1000A3005DEFFFFFFFFFFFFFFFFFFFFFFFFFFFFF0F
:1000B300FFFFFFFFFFFFFFFFFFFFDFFFF59C0F5376
:1000C300104B51530F4B6C3AE93167212519E4105A
:1000D300A308620083088A4A59C6FFFFFFFFFFFF98
:1000E300FFFFFFFFFFFFFFFFFFFFFFFFFFFFFFFF1D
:1000F3005DEFFFFFFFFFFFFFFFFFFFFFFFFFFFFFBF
:10010300FFFFFFFFFFFFFFFF1CE74F5BB363B87CFD
:10011300F56311434D32EA2988212619051905197A
:1001230004110411E4108300A308728CFFFFFFFF86
:10013300FFFFFFFFFFFFFFFFFFFFFFFFFFFFFFFFCC
:100143005DEFFFFFFFFFFFFFFFFFFFFFFFFFFFFF6E
:10015300FFFFFFFFFFFFDBDE4B3AF042356C544BF2
:10016300B1322E2AEB21A9216719051904110411B3
:100173000411041104110519E4104200AF73FFFFC9
:10018300FFFFFFFFFFFFFFFFFFFFFFFFFFFFFFFF7C
:100193005DEFFFFFFFFFFFFFFFFFFFFFFFFFFFFF1E
:1001A300FFFFFFFF5DEF09324C32104B8F324F2AB6
:1001B3002E2ACC198919892147190519041104110B
:1001C300C410C410041104110411E410420031845A
:1001D300FFFFFFFFFFFFFFFFFFFFFFFFFFFFFFFF2C
:1001E3005DEFFFFFFFFFFFFFFFFFFFFFFFFFFFFFCE
:1001F300FFFFFFFFEC5247194C320B2AEC21EC2195
:100203000C22915BEE4A061126190419E410E4103E
:10021300A7296621A308051904110411E41082001B
:10022300F7BDFFFFFFFFFFFFFFFFFFFFFFFFFFFF25
:100233005DEFFFFFFFFFFFFFFFFFFFFFFFFFFFFF7D
:10024300FFFF35A58308882188218921AA218A21D6
:100253006B42718CFFFF728C83080411C40829421E
:10026300FBDE5DEFEC5A83080411041104118308CB
:10027300E831DFFFFFFFFFFFFFFFFFFFFFFFFFFF90
:100283005DEFFFFFFFFFFFFFFFFFFFFFFFFFFFFF2D
:10029300BEF7C731C4102519261947194719A829CC
:1002A3008A52284A55ADFFFFE831A30805194D6B63
:1002B3004D6BFFFF7DEF4521C410041104110411A0
:1002C300620076ADFFFFFFFFFFFFFFFFFFFFFFFFB2
:1002D3005DEFFFFFFFFFFFFFFFFFFFFFFFFFFFFFDD
:1002E30096B562000411041905110519C4088B4A57
:1002F300B6B55DEFF7BDFFFF8E6B62002942AA5AC8
:100303000842FFFFFFFFCC528308041104110411BC
:10031300A308AD52FFFFFFFFFFFFFFFFFFFFFFFF3C
:10032300BEF7FFFFDFFFDBDEFFFFFFFFFFFFFFFF88
:100333004E636200041104110411E41062008E6321
:10034300FFFFFFFFFFFFFFFFCF730100F39C2C6351
:1003530096B5FFFFFFFF2D5B830004110411041109
:10036300E41067213DEFFFFFFFFFFFFFFFFFFFFFEC
:10037300B7B576AD7DEFCB52B394FFFFFFFFDFFF41
:10038300E831A3080411041104110411A30849421C
:10039300FFF7FFF7FFFFFFFF6A4A01007284FFFFC9
:1003A300FFFFFFF7DFEF093AA3080411041104115B
:1003B3000411051118BEFFFFFFFFFFFFFFFFFFFF43
:1003C300F07B6200E831C731410035A5FFFF5DEFE7
:1003D3004621C4100411041104110411E410A308EC
:1003E300769DFFF7FFFFB7ADA308A308C7319EE7CC
:1003F300FFF7FFF776A5A308E41004110411041115
:100403000511051135A5FFFFFFFFFFFFFFFFFFFFED
:10041300DBDEA7298300C410C410C4101CE79EEFC1
:100423000511E41004110411041104110419C40882
:10043300E510D16BD16BC5086400A50843002B32CE
:10044300779DB3842519C4100411041104110411F8
:1004530025192609359DFFFFFFFFFFFFFFFFFFFF64
:10046300FFFFAF7362000419051982000D5B8E9BB9
:1004730062100511041104110419E410850005111B
:10048300C439815A407B229C43AC03A4839B827270
:100493008249C218A400C500E41004190411051907
:1004A30047196711EC5ABEFFFFFFFFFFFFFFFFFF76
:1004B300DFFFDBD6C410E41004110511A41801C03A
:1004C3008388E40005190419C5084421438323D50F
:1004D30042FEE4FE27FF07FFA4FE64FE03FEA3FD26
:1004E300E2FC42EC83B32462E510C4080419261924
:1004F300A81987210090D3BCFFFFFFFFFFFFFFFF79
:100503005DEFFFFFF07B420005190511832801D041
:1005130044F8A348E400C508445A02EDE2FD02FE94
:1005230066FE74FFB8FF73FFE7F6A6F645F6A4F57B
:10053300C3FC62FCC2FCC2FCE3CBC44906118819AC
:100543008701A49001F8EC9AFFFFFFFFFFFFFFFF75
:100553005DEFFFFF9EF7E83183000509824001C08C
:1005630023F885F0A348A400445A02FD23CCC2DC3F
:1005730004FE28FE48F646F624F6E4F564FDE3FCA3
:1005830062FCC2FC02E402DCE2FCA47A48016701DB
:10059300C47824F802F884B07DE7FFFFFFFFFFFF74
:1005A3005DEFFFFFFFFFDBDE2519A300C43802E088
:1005B30022D844F8A6F8A4786300432183728339D0
:1005C300829B21F561FD22FDE2FCA2FC42FC42FC80
:1005D30042FC22AB8341C392045226012519A498FD
:1005E30044F823F802F8A4D09EEFFFFFFFFFFFFFBC
:1005F3005DEFFFFFFFFFFFFF9AD68729A50043B8F2
:1006030022F823E065F8E8F807C983484200A3000D
:1006130084006329A27A62B3A2CB62D302BB828A2B
:100623008339A400E500E500E508C46064D844F814
:1006330024F823F802F88388DBC6FFFFFFFFFFFFE0
:100643005DEFFFFFFFFFFFFFFFFF3DE7505B08315B
:1006530023E843F844F065F809F9ABF989D1068931
:10066300A348421802004200610082006200620057
:100673008300A320C450A58885D865F844F844F8BE
:1006830023F823F803D08210C7295DEFFFFFFFFF94
:100693005DEFFFFFFFFFFFFFFFFFFFFFFFFF6C3279
:1006A300A53802D823F865F866F8A7F84AF90CFAD2
:1006B3004DFA4CEA0BD2A9B968B147A927B107B9DA
:1006C30007D1E7E8C7F8A7F865F865F844F823F811
:1006D30003F802D0A3280509C408EC5AFFFFFFFF63
:1006E3005DEFFFFFFFFFFFFFFFFFFFFFFBDE0519CE
:1006F300C400A741E6C003F886F8A7F887F886F890
:10070300C7F829F98AF9ABF9ABF98BF96AF929F931
:1007130008F9C7F8A6F886F865F864F823F802F034
:1007230006B12529E400E41025192519149DFFFFBE
:100733005DEFFFFFFFFFFFFFFFFFFFFF96AD6200CF
:1007430082083595BACE8BA244D025F887F8A7F84E
:10075300C7F8A7F887F886F886F886F887F8A7F821
:10076300A7F8A6F885F865F864F824F064B80D9343
:10077300BBB6CF6383080411E4106621493A5DEFE9
:100783005DEFFFFFFFFFFFFFFFFFFFFFD39442007B
:10079300E410BBCEFFFFBEE776B5CCAA07C145E0A8
:1007A30045F846F866F886F886F886F886F865F818
:1007B30045F865F865E844D043A8018882903CD7A2
:1007C300FFEF559583080411041105194619B394D5
:1007D3005DEFFFFFFFFFFFFFFFFFFFFFB39441004C
:1007E30086215DDFFFFFFFFFFFFFDFE77AC6D3B49C
:1007F3004EB32AC268D1E6E0A6E8A5E8A5E8E6D8A4
:1008030088C906A922A802A800A000C800D8F7E555
:10081300FFE7F8ADC410E4100411E41005118B4A8E
:100823005DEFFFFFFFFFFFFFFFFFFFFF55A5410048
:10083300A7295DDFFFF7FFFFFFFFFFFFFFFFFFFFBD
:10084300FFEF7DDFDBCE59CEF8CDD7CDF7C579CE1F
:10085300FBBEABA203F045F842D043E800F072D4EC
:10086300FFDF39AEE410E4100411E4100511872909
:100873005DEFFFFFFFFFFFFFFFFFFFFF59CE830881
:1008830046211CD7FFF7FFFFFFFFFFFFFFFFFFFF1F
:10089300FFFFFFFFFFFFFFFFFFFFFFFFFFFFFFFF65
:1008A300FFEF8BBA04F845F862E044F000F88EDB02
:1008B300FFDFF8A5C410E410E4100411E4102519B7
:1008C3005DEFFFFFFFFFFFFFFFFFFFFFBEF787297E
:1008D300830839B6FFF7DFF7FFFFFFFFFFFFFFFFD7
:1008E300FFFFFFFFFFFFFFFFFFFFFFFFFFFFFFFF15
:1008F300BEE74ABA03F845F864F844F800F86EE333
:10090300FFD7F48C83080411E410E410E4100519F4
:100913005DEFFFFFFFFFFFFFFFFFFFFFFFFFEF7332
:1009230000007284FFEFBEEFDFFFFFFFFFFFFFFF5B
:10093300FFFFFFFFFFFFFFFFFFFFFFFFFFFFFFFFC4
:10094300DFE78BBA03F845F845F823F800F8D3D46A
:10095300FFD74E5B2100293A55A58308C4102519FA
:100963005DEFFFFFFFFFFFFFFFFFFFFFFFFFFBDE6B
:10097300A308E8319EDF9EE7BFEFFFFFFFFFFFFF06
:10098300FFFFFFFFFFFFFFFFFFFFFFFFFFFFFFFF74
:10099300FFF751BC02E003F803F043E0ECC27ECF63
:1009A300FCBE46212100D394FFFF51840000872918
:1009B3005DEFFFFFFFFFFFFFFFFFFFFFFFFFFFFFF6
:1009C30051840000F48CFFEF9EE7BFEFDFFFFFFFD2
:1009D300FFFFFFFFFFFFFFFFFFFFFFFFFFFFFFFF24
:1009E300FFFF3DDF55BD52BC72BCB7B55DC7FFDF2E
:1009F300F06B0000093ABFF7FFFFFFFF149D55A5F9
:100A03005DEFFFFFFFFFFFFFFFFFFFFFFFFFFFFFA5
:100A1300FFFFAC4AA408BBBEDFE77EE7BEEFDFF70C
:100A2300DFFFFFFFFFFFFFFFFFFFFFFFFFFFFFFFF3
:100A3300DFFFDFF7FFEFDFDFBFD79ED7DFDFD8A50D
:100A430083082611DBD6FFFFFFFFFFFFFFFFFFFF3A
:100A53005DEFFFFFFFFFFFFFFFFFFFFFFFFFFFFF55
:100A630079EE8BDC2131A9213DCFBFDF7EDF9EE70D
:100A7300BEEFBFEFDFF7DFF7DFF7DFF7DFF7BFEF3C
:100A8300BEEF9EE77EDF5ED75ED7DFDF9AB626191D
:100A93004208EDA3BFFFFFFFFFFFFFFFFFFFFFFFC5
:100AA3005DEFFFFFFFFFFFFFFFFFFFFFFFFF74DDB2
:100AB300C0DB00FE42EE024289217BB6DFDF7ED738
:100AC3007EDF7EDF9EE79EE79EE79EE79EE77EDF73
:100AD3007EDF5DD75DD79EDFFFE7F8A50711E3183B
:100AE30002C560FDE6D3DBEEFFFFFFFFFFFFFFFF65
:100AF3005DEFFFFFFFFFFFFFFFFFFFFF9EF784BADE
:100B0300C1FC42FE82FEA2FE8183452174745EC74E
:100B1300DFDF7ED75ED75DD75ED75ED75DD75DD784
:100B23005ED79EDFFFE73DC7F1638408425226E6A6
:100B330029FF86FEE0F36AC3FFFFFFFFFFFFFFFF0E
:100B43005DEFFFFFFFFFFFFFFFFFFFFF18DEC1D2D7
:100B5300A2FD22FE42FE42FE62FEE2D4416A494207
:100B630053743BA63EC7BFD7BFD7BFD7BFDFBFD7DF
:100B73003EC71AA6F263A729824122B462FE83FE0E
:100B8300AAFE0FFF67FD63BA3CEFFFFFFFFFFFFF06
:100B93005DEFFFFFFFFFFFFFFFFFFFFF9AE680D23E
:100BA30021FDC2FDE2F5C2F582F582FD62FD61DC45
:100BB300219B846AE96A2C63AF6311746E632C63AF
:100BC300895A0452817AC2CBE2FC62FD82FDC2FDE6
:100BD300C2FDE4FD24FD62CA1CE7FFFFFFFFFFFF28
:100BE3005DEFFFFFFFFFFFFFFFFFFFFFFFFFB1CC45
:100BF30081D2C0F3C1FC02FD02FDE2FCC2FCC2FCD7
:100C030081FC80FBC0C9A48135AD59CE719C218183
:100C130000DAA1FB82FCA2FC82FCA2FC02FD22FD05
:100C2300E2FC00FC60DA90CCFFFFFFFFFFFFFFFF59
:100C33005DEFFFFFFFFFFFFFFFFFFFFFFFFFFFFF73
:100C430059DE0DC406CBE4D203DB03DBE3DAC3D204
:100C5300A4C209B3D2BC9EF7FFFFFFFFFFFFFBE671
:100C63000EB4A6BA83D2E3E202EB22EB22E303DB68
:100C7300E4D26AC3B6D5FFFFFFFFFFFFFFFFFFFF0D
:100FD800E4FDFCC3ED9FEC9E5015E4FBFA0BBB004F
:0F0FE800010AEB64FA4A70F50DBD00010C80E4BC
:010FF70022D7
:101011007E08EF30E704D2A38002C2A3C2A5D2A505
:06102100EF25E0FFDEEC0C
:0110270022A6
:0A106E00C2A0C2A2121011D2A022EB
:07103F007F2A12106EE4FF8E
:0D104600E47814F2C2A0D2A2121011D2A0C0
:01105300227A
:040FF800AD07AC068F
:100FFC00E4780CF2C2A0D2A2ECFF121011AF0512D1
:04100C001011D2A04D
:0110100022BD
:0E105400C2A17F647E00120FD8D2A1020FD875
:100C83001210547F1112106E7F787E00120FD87FDE
:100C9300B112106E7F011210467F2C1210467F2D69
:100CA3001210467FB212106E7F011210467F2C1273
:100CB30010467F2D1210467FB312106E7F01121063
:100CC300467F2C1210467F2D1210467F01121046CC
:100CD3007F2C1210467F2D1210467FB412106E7FA8
:100CE300071210467FC012106E7FA21210467F02B9
:100CF3001210467F841210467FC112106E7FC512F8
:100D030010467FC212106E7F0A121046E4FF1210C3
:100D1300467FC312106E7F8A1210467F2A12104636
:100D23007FC412106E7F8A1210467FEE1210467F28
:100D3300C512106E7F0E1210467F3612106E7FA8FA
:100D43001210467FE012106E7F0F1210467F1A12A8
:100D530010467F0F1210467F181210467F2F121075
:100D6300467F281210467F201210467F221210461B
:100D73007F1F1210467F1B1210467F231210467FDF
:100D830037121046E4FF1210467F071210467F0207
:100D93001210467F101210467FE112106E7F0F1261
:100DA30010467F1B1210467F0F1210467F1712103A
:100DB300467F331210467F2C1210467F29121046AD
:100DC3007F2E1210467F301210467F301210467F5E
:100DD300391210467F3F121046E4FF1210467F0778
:100DE3001210467F031210467F1012104612103F56
:100DF3007F02121046E4FF1210467F821210467FD4
:100E03002B1210417F03121046E4FF1210467F831A
:100E13001210467FF012106E7F011210467FF612F9
:100E230010417F3A12106E7F051210467F2902107F
:010E33006E50
:100F6D008F828E8312103FAF82EF2420FF12104626
:100F7D00E4FF121046EB2420FF1210467F2B1210B7
:100F8D0041AF05121046E4FF121046781208E2FF39
:080F9D001210467F2C02106EB9
:070FA500780AEEF208EFF2FA
:100FAC007812E4F208747FF2FB7A00E4FDFCFFFE99
:100FBC00120F6DE4FBE4FA780AE2FE08E2FF120F6E
:0B0FCC00F80AEAB480F10BEBB480EAF5
:010FD70022F7
:0A0E34007800EBF208EAF208E9F298
:100E3E0074FFFFFE120FA5E47807F208F2E47805BE
:100E4E00F208F27805E2FA08E2FB7C007D28FFAE9C
:100E5E0002120F5BC006C0077807E2FE08E2FF121F
:100E6E000F5B8E838F82AF03AE02120F5BEF2427D0
:100E7E00FBE43EFA7807E2FE08E2FF120F5BEF2476
:100E8E00277813F2E43E18F2AD82AC83D007D00679
:100E9E00120F6DE47803F208F27803E2FE08E2FF27
:100EAE00C39440EE64809486503FEF25E0FFEE330E
:100EBE00FE7800E2FB08E2FA08E2F98F828E8312D6
:100ECE000F2E7809F2E92FF9EA3EFA900001120F7F
:100EDE002EFBFE7809E2FDEDFF120FF87804E224F6
:100EEE0001F218E23400F280B07806E22401F21822
:100EFE00E23400F2C308E2940318E2648094805056
:100F0E0003020E517808E22401F218E23400F2C313
:0F0F1E0008E2940318E2648094805003020E4BA3
:010F2D0022A1
:10102800120C83D2A47BFF7A007903120E347FDC82
:071038007E05120FD880EEC7
:0300000002106289
:0C106200787FE4F6D8FD758107021028A5
:100F2E00BB010CE58229F582E5833AF583E0225078
:100F3E0006E92582F8E622BBFE06E92582F8E222C2
:0D0F4E00E58229F582E5833AF583E49322DC
:100F5B00EF8DF0A4A8F0CF8CF0A428CE8DF0A42EAA
:020F6B00FE2264
:00000001FF
