:1000FD00E4F593F594F591F592F595F596F5B1F541
:10010D00B2F5B3F5B4F5C9F5CAF5CBF5CCF5E1F516
:10011D00E2C200C201C202C203F508F509750A0167
:10012D00F50B750C02F50D750E04F50F758E8075BA
:10013D008CA2758A40D2A9D28C43BA8090FEECF085
:10014D00A3F090FEE87460F0A3F0A3F0A3F0A37405
:10015D0033F0A3F090FEF27403F0A374FFF090FE61
:10016D00B5E4F0E04401F0E04404F0E04410F0E0C8
:10017D004440F0A3E4F0E0F0E0F0E0F0E0F090FEB9
:10018D00FD7480F090FEE0E04401F053BA7FD2AFF1
:02019D0080FEE2
:03000B0002000EE2
:10000E00C0E0C0F0C083C082C0D075D000C000C0B8
:10001E0001C002C003C004C005C006C00720001501
:10002E000509E50970020508C394FFE50894074029
:10003E0019D2008015E509150970021508D3E509D6
:10004E009400E50894005002C200200115050BE54E
:10005E000B7002050AC394FFE50A94074019D201FA
:10006E008015E50B150B7002150AD3E50B9400E510
:10007E000A94005002C201200215050DE50D700212
:10008E00050CC394FFE50C94074019D2028015E5C8
:10009E000D150D7002150CD3E50D9400E50C9400B2
:1000AE005002C202200315050FE50F7002050EC3A4
:1000BE0094FFE50E94074019D2038015E50F150F36
:1000CE007002150ED3E50F9400E50E94005002C297
:1000DE000312019FD007D006D005D004D003D00262
:0F00EE00D001D000D0D0D082D083D0F0D0E0327B
:10019F0043BA80E50890FEF5F0A3E509F0E50AA360
:1001AF00F0A3E50BF0E50CA3F0A3E50DF0E50EA32E
:0901BF00F0A3E50FF053BA7F2212
:030000000201C832
:0C01C800787FE4F6D8FD7581200200FD70
:00000001FF
