:10029500C3FCC1EEC9E8D6C33A0D0A004520307843
:1002A50030303132333420202020202020202020DF
:1002B50020202D2D3E20C9C8C7F8B2C1B32020CAC1
:1002C500AEC1F9BDF8D6C6B5D8D6B70D0A005720C8
:1002D50030783030313233342031323334353637BB
:1002E500383930202D2D3E20D0B4C8EBB2D9D7F700
:1002F5002020CAAEC1F9BDF8D6C6B5D8D6B72020DC
:10030500D0B4C8EBC4DAC8DD0D0A0052203078300D
:10031500303132333420313020202020202020205D
:10032500202D2D3E20B6C1B3F6B2D9D7F72020CA6D
:10033500AEC1F9BDF8D6C6B5D8D6B72020B6C1B37B
:10034500F6D7D6BDDACA0D0A00432020202020208A
:100355002020202020202020202020202020202D8B
:100365002D3E20C8E7B9FBBCECB2E2B2BBB5BD502F
:100375004D32354C563034302C20B7A2CBCD43C747
:10038500BFD6C6D4CAD0EDB2D9D7F72E0D0A0D0AFD
:1003950000CEB4BCECB2E2B5BD504D32354C563052
:1003A5003430210D0A00BCECB2E2B5BD504D3235FA
:1003B5004C56303430210D0A00D6C6D4ECC9CC4990
:1003C5004431203D2030780020202020494432202F
:1003D5003D2030780020202020C9E8B1B8494420CC
:1003E5003D203078000D0A00C7BFD6C6D4CAD0ED6F
:1003F500B2D9D7F7464C415348210D0A00504D322A
:10040500354C56303430B2BBB4E6D4DA2C20B2BB0E
:10041500C4DCB2D9D7F7464C415348210D0A00D266
:10042500D1B2C1B3D2BBB8F6C9C8C7F8CABEDD21BF
:100435000D0A00D2AAD0B4C8EBB5C4B5D8D6B7CE8C
:10044500AAB7C7BFD52CB2BBC4DCD0B4C8EB2CC788
:10045500EBCFC8B2C1B3210D0A00D2D1D0B4C8EBDD
:1004650000D7D6BDDACABEDD210D0A00D0B4C8EB6F
:10047500B4EDCEF3210D0A00B6C1B3F600B8F6D738
:10048500D6BDDACABEDDC8E7CFC2A3BA0D0A00C31E
:0B049500FCC1EEB4EDCEF3210D0A0017
:04000300C4540FFFD3
:1000070053070FEFC3940A74809480EF5004243091
:06001700FF222437FF2246
:1004A000E4F593F594F591F592F595F596F5B1F59A
:1004B000B2F5B3F5B4F5C9F5CAF5CBF5CCF5E1F570
:1004C000E27F0A1209497F01120799D2AF7BFF7AB6
:1004D0000279951209037BFF7A0279A11209037B45
:1004E000FF7A0279D31209037BFF7A03791012098C
:1004F000037BFF7A03794E12090312097212081A5C
:1005000012081A7BFF2001067A03799680587A0335
:1005100079AB1209037BFF7A0379BE120903E50A5E
:1005200012000312091FAF0A12000712091F7BFFF6
:100530007A0379CD120903E50B12000312091FAFEC
:100540000B12000712091F7BFF7A0379DA120903E5
:10055000E50912000312091FAF0912000712091F53
:100560007BFF7A0379EA1209037F01120949D3E577
:100570000894007480948040F01508E50870EAD370
:10058000E50C9400748094804003120026E4F50C7E
:0205900080D712
:0F0949007DA57C06ED1D70011C144C70F7DFF1CD
:01095800227C
:0C08520074002DF582E43400F583E0FF13
:10085E00EFC39430400CEFD394395006C3EF94306D
:10086E00FF22EFC39441400BEFD394465005EF2483
:06087E00C9FF227FFF22EA
:10060E00E4F518F517F516F515900002E064307054
:10061E0060A3E06458705A751904C3E519940A74FE
:10062E008094805043740025191208558F1AC3EF19
:10063E0094107480948040028037AF18AE17AD16B8
:10064E00AC157804120786A804A905AA06AB07E420
:10065E00FCFDFEEB251AF518EE3AF517ED39F516F9
:10066E00EC38F515051980B2AF18AE17AD16AC15EE
:07067E0022E4FFFEFD7C8079
:010685002252
:10088400E4FE7D0BEDC3950C501A120852EFC3948D
:100894000A74809480500D120852EE75F00AA42F49
:0608A400FE0D80E0AF062E
:0108AA00222B
:10002600E50C64017012900000E0B4430BD2017B32
:10003600FF7A0379ED1209032001097BFF7A04791F
:1000460002020291C2D5C3E50C940A7480948050D2
:1000560003020288900001E064206003020288F532
:1000660013C3E513940A74809480502D74002513ED
:10007600F582E43400F583E0FFC394614017EFD3C3
:10008600947A5011EF24E0FF74002513F582E434CE
:1000960000F583EFF0051380C812060E8F118E103F
:1000A6008D0F8C0EE4FFFEFD7C80AB11AA10A90F0C
:1000B600A80EC31207754003020288900000E0B440
:1000C6004519AF11AE10AD0FAC0E1208AB7BFF7A1F
:1000D600047924120903D2D5020288900000E06454
:1000E6005760030201C5C3E50C940C7480948050DC
:1000F600030201C590000AE0642060030201C5E521
:100106000C24F5F514E4F513E513C3951450127495
:100116003B2513F582E43400F58374FFF005138064
:10012600E77A00793B1206868F13D3EF940074802A
:10013600948040097BFF7A0479380201BDC2A7AFDB
:1001460011AE10AD0FAC0E7B017A00790B85141C35
:10015600120592D2A77A00790B1206868F13EF70DA
:10016600507BFF7A04795F120903C3E51494647423
:10017600809480400C120916E51475F0648485F0AD
:1001860014C3E514940A74809480400F75F00A1223
:100196000919E51475F00A8485F014E51475F00A5A
:1001A60084E5F02430FF12091F7BFF7A047966800C
:1001B600067BFF7A047971120903D2D50202889070
:1001C6000000E064526003020288C3E50C940C74DC
:1001D600809480500302028890000AE06420600345
:1001E6000202881208848F147E00D3EF9400748074
:1001F60094805003020288EF943274809480400306
:10020600020288C2A77B017A00793B8E1C8F1DAF44
:1002160011AE10AD0FAC0E1206F8D2A77BFF7A0412
:10022600797D120903C3E5149464748094804003B5
:10023600120916E51475F06484E5F075F00A1209E2
:100246001BE51475F00A84E5F02430FF12091F7BC4
:10025600FF7A047982120903E4F513E513C39514B2
:100266005014743B2513F582E43400F583E0FF1245
:10027600091F051380E57F0D12091F7F0A12091F4A
:0E028600D2D520D5097BFF7A047994120903A2
:010294002247
:0909160075F064E514842430FF3F
:08091F008F99D2002000FD2297
:1009030012074AFF600C12091F740129F9E43AFA2D
:0309130080EE2251
:1008D200AD07AC06538EEF538EF7438E048CD6AF22
:0A08E200058FD753AFFB438E1022A1
:10079900EF6402700C438E017FD07EFF1208D28075
:1007A9001BC28E538EFE438E405389BF5389CF752A
:1007B9008DFF758BD0C2AB538FFDD28EE598543F18
:1007C9004440F598D2ACD29C53A23FC200E4F50D47
:0307D900F50C22FA
:030023000207DCF5
:1007DC00C0E0C083C082C0D0309823C298C3E50C5F
:1007EC00943B748094804003750C007400250CF5C8
:1007FC0082E43400F583E599F0050C750805309911
:0E080C0004C299C200D0D0D082D083D0E03296
:07097200D2A2C2A5D2A3220C
:100927007E08EF25E0FF92A3D2A5C2A5DEF4D2A3ED
:01093700229D
:100938007E08EF25E0FF30A4010FD2A5C2A5DEF2A4
:01094800228C
:10081A00C2A27FAB120927E4FF120927E4FF1209DB
:10082A0027E4FF1209271209388F0A1209388F099B
:10083A001209388F0BD2A2E50A649D7008EF647F13
:08084A007003D20122C2012259
:0C095900C2A27F05120927120938D2A2A1
:01096500226F
:1008EC00120959D3EF94007480948050F3C2A27F04
:0708FC0006120927D2A22217
:1008AB008F188E178D168C1530011B1208ECC2A2F7
:1008BB007FD7120927AF16120927AF17120927AFD7
:0708CB0018120927D2A22236
:1006F8008F188E178D168C15E51D451C604330012B
:1007080040120959D3EF94007480948050F3C2A228
:100718007F03120927AF16120927AF17120927AF4F
:1007280018120927120938EF120763740129F9E42E
:100738003AFAE51D151D7002151C14451C70E5D20A
:02074800A222EB
:100686007B01751C0085141DAF11AE10AD0FAC0EAD
:080696008F188E178D168C15CC
:10069E00E51D451C70037F02222001037F022212FA
:1006AE000959D3EF94007480948050F3E4FDC2A2F4
:1006BE007F03120927AF16120927AF17120927AFAA
:1006CE001812092712093812074A6F60047D01803B
:1006DE0014740129F9E43AFAE51D151D7002151C72
:0906EE0014451C70DFD2A2AF0517
:0106F70022E0
:100592008F188E178D168C158B198A1A891BE51CDC
:1005A2006069300166120959D3EF94007480948017
:1005B20050F31208ECC2A27F02120927AF161209E9
:1005C20027AF17120927AF18120927AB19051BE528
:1005D2001BAA1A7002051A14F912074AFF120927F8
:1005E200E5182401F518E43517F517E43516F51664
:1005F200E43515F515E518FFE4FEFDFCFBFAF9F804
:0C060200C31207756003D51CC2D2A222EF
:030000000209668C
:0C096600787FE4F6D8FD7581200204A023
:10074A00BB010689828A83E0225002E722BBFE02AD
:09075A00E32289828A83E49322E0
:10076300BB010689828A83F0225002F722BBFE0175
:02077300F3226F
:10077500EB9FF5F0EA9E42F0E99D42F0E89C45F0DA
:010785002251
:10078600E8600FEFC333FFEE33FEED33FDEC33FCD1
:03079600D8F12275
:00000001FF
