:1000C1005354433848384B363455205541525434F3
:1000D10020546573742050726F6772616D6D652174
:0300E1000D0A0005
:10000300E4F593F594F591F592F595F596F5B1F53B
:10001300B2F5B3F5B4F5C9F5CAF5CBF5CCF5E1F511
:10002300E2FF120096D2AF7BFF7A0079C11201176B
:10003300E509650860FA2000F774212509F8E6F55B
:1000430085D2000509C3E50994407480948040E09B
:05005300E4F50980DB6B
:100117001200FE6010F585D2002000FD740129F958
:06012700E43AFA80EB222D
:1000E400AD07AC06538EEF538EF7438E048CD6AF18
:0A00F400058FD753AFFB438E102297
:10009600EF6402700C7FD07EFF1200E4758410803E
:1000A6000C75845075D2FF75D3D075D1A043AF10AF
:0B00B60053BAFBC200E4F509F5082274
:0300930002005810
:10005800C0E0C0D075D000C000E5845401601A53D8
:1000680084FE74212508F8A6850508C3E508944090
:10007800748094804003750800E584540260055339
:0B00880084FDC200D000D0D0D0E032D8
:0300000002012DCD
:0C012D00787FE4F6D8FD758160020003C5
:1000FE00BB010689828A83E0225002E722BBFE0200
:09010E00E32289828A83E4932232
:00000001FF
