:1001DB003F065B4F666D7D077F6F777C395E79716C
:1001EB000040761E7038375C733E783D6750376E33
:1001FB00BF86DBCFE6EDFD87FFEF4601020408105B
:03020B0020408010
:1000FE00E4F593F594F591F592F595F596F5B1F540
:10010E00B2F5B3F5B4F5C9F5CAF5CBF5CCF5E1F515
:10011E00E2F514FFEFC394087480948050097408BC
:10012E002FF876100F80EDE4F510F513F50DF50EA2
:10013E0085100FD2AF7F011202351201A40512E510
:10014E001270020511C394E8E511940340E7E4F53B
:10015E0011F5120510E51075F06484F50DE51075B6
:10016E00F06484E5F075F00A84F50EE51075F00A7A
:10017E008485F00F0513C3E51394027480948040B8
:10018E00B4E4F51375F8FF7FD07E0712020E438795
:06019E0002000000809F3A
:10020E007C807D001200D1E47B807A3EF9F81200EA
:10021E003FD3EF9400EE94004005EF1F70011E8F48
:07022E00AAEE4480F5AB22AB
:0F0235007D367C07ED1D70011C144C70F7DFF156
:010244002297
:1001A400C374079514FFE49400FE74062FF582745B
:1001B400023EF583E493F4F5F874082514F8E69008
:1001C40001DB93F4F5E80514C3E5149408748094F2
:0701D400804003E4F5142252
:03000000020245B4
:0C024500787FE4F6D8FD7581140200FEFD
:1000030075F008758200EF2FFFEE33FECD33CDCCB4
:1000130033CCC58233C5829BED9AEC99E582984037
:100023000CF582EE9BFEED9AFDEC99FC0FD5F0D614
:10003300E4CEFBE4CDFAE4CCF9A88222B800C1B93E
:100043000059BA002DEC8BF084CFCECDFCE5F0CB7C
:10005300F97818EF2FFFEE33FEED33FDEC33FCEBB5
:1000630033FB10D703994004EB99FB0FD8E5E4F970
:10007300FA227818EF2FFFEE33FEED33FDEC33FC5D
:10008300C933C910D7059BE99A4007EC9BFCE99A51
:10009300F90FD8E0E4C9FAE4CCFB2275F010EF2F96
:1000A300FFEE33FEED33FDCC33CCC833C810D70796
:1000B3009BEC9AE899400AED9BFDEC9AFCE899F8D1
:0E00C3000FD5F0DAE4CDFBE4CCFAE4C8F92264
:1000D100EC8EF0A4CCC5F0CCCDF8EFA4CEC5F02DBC
:1000E100FDE43CFCE8A42EC8C5F03DFDE43CFCEF7A
:0D00F100A4FFE5F028FEE43DFDE43CFC2208
:00000001FF
