:1000AE003F065B4F666D7D077F6F777C395E79719A
:1000BE000040761E7038375C733E783D6750376E61
:1000CE00BF86DBCFE6EDFD87FFEF46010204081089
:0300DE002040803F
:10000300E4F593F594F591F592F595F596F5B1F53B
:10001300B2F5B3F5B4F5C9F5CAF5CBF5CCF5E1F511
:10002300E2F513FFEFC39408748094805009740AB7
:100033002FF876100F80EDE4F512F508F509850920
:10004300117F011200E1120077D3E5129405748049
:100053009480500375C1330509E50970020508C38F
:1000630094E8E508940340D9E4F508F509051285F9
:04007300121180CD19
:0F00E1007D367C07ED1D70011C144C70F7DFF1AC
:0100F00022ED
:10007700C374079513FFE49400FE74D92FF58274B7
:10008700003EF583E493F4F5F8740A2513F8E69037
:1000970000AE93F4F5E80513C3E513940874809450
:0700A700804003E4F5132281
:030000000200F10A
:0C00F100787FE4F6D8FD7581130200034F
:00000001FF
