:100194003F065B4F666D7D077F6F777C395E7971B3
:1001A4000040761E7038375C733E783D6750376E7A
:1001B400BF86DBCFE6EDFD87FFEF460102040810A2
:1001C400204080008C0095009F00A800B200BC0075
:1001D400C700D200DE00E900F601030110011E0190
:1001E4002D013D014D015D016F0181019301A701C5
:1001F400BB01D001E601FD0215022E024702620294
:100204007E029B02B802D702F603170338035A038F
:100214007D03A103C503EB04110438045F048804BF
:10022400B104DB05050530055B058605B305DF066E
:100234000C06390666069406C206EF071D074B072F
:100244007807A607D30800082D0859088608B108BE
:10025400DD09080932095D098609AF09D709FF0AD2
:10026400260A4D0A730A980ABC0AE00B030B250BF5
:10027400470B680B880BA80BC60BE40C010C1E0C77
:100284003A0C550C6F0C890CA20CBB0CD30CEA0D68
:10029400000D170D2C0D410D550D680D7C0D8E0DA7
:1002A400A00DB20DC30DD30DE30DF30E020E110E0E
:1002B4001F0E2C0E3A0E470E530E5F0E6B0E760E6B
:1002C400820E8C0E970EA10EAA0EB40EBD0EC60E93
:1002D400CF0ED70EDF0EE70EEE0EF60EFD0F040F57
:1002E4000A0F110F170F1D0F230F290F2F0F340F94
:1002F400390F3E0F430F480F4D0F510F560F5A0F32
:050304005E0F620F66B0
:10030900E4F593F594F595F596F5B1F5B2F5B3F5F0
:10031900B4F5C9F5CAF5CBF5CCF5E1F5E275910867
:10032900F592F51243BA8090FEA8743FF053BA7F54
:1003390075DE2F75BC80758E80758CA2758A40D24A
:10034900A9D28CD2AFE4F513C3E513940874809451
:1003590080500B74082513F87610051380EA3000D5
:10036900FDC2000511E51170020510C3942CE510BA
:10037900940140EAE4F510F5117F0312050AAB0771
:10038900AA06C3EA9410400302041F12000EAA062B
:10039900AB07C3EB9490EA9401400CC2D574702B5F
:1003A900FB74FE3AFA800BD2D5C374909BFB74019F
:1003B9009AFA7C037DE8AF03AE0212044D8F0C7CE0
:1003C900037DE8AF03AE0212044D7E007F64CFCDFA
:1003D900CFCECCCE12044D8F0D7C007D64AF03AE21
:1003E9000212044D7E007F0ACFCDCFCECCCE1204AF
:1003F9004DEF2420F50EAE02AF037C007D0A1204F6
:100409004D8D0FE50C7003750C1020D503020367A1
:10041900750C11020367E4F513C3E513940874809E
:100429009480400302036774082513F876110513B5
:0204390080E75A
:10050A00E4F5BDF5BEEF444042BC00000000E5BC86
:10051A00542060FA53BCDFAFBDEFFEADBEEDFF2243
:04000E008E148F15A8
:10001200C3E49515F51574109514F514751601754C
:1000220017C7851782851683D37401939515E493B8
:10003200951440057EFF7FFE22E5172440F582E5F8
:10004200163401F583C37401939515E49395145006
:10005200057EFF7FFF22E4F51A7FA0FBEBC3940528
:1000620074809480502BEFC313FEE51AC3132EFE47
:1000720085178285168375F0021204A2C374019358
:100082009515E49395144004AF0680028E1A0B80F6
:10009200CB85178285168375F002E51A1204A274C5
:1000A2000193B51507E493B51402803F8517828545
:1000B200168375F002EF1204A2740193B51508E4D9
:1000C20093B51403EF8026E51AD39F400302018FF4
:1000D200051A85178285168375F002E51A1204A2A5
:1000E200740193B51513E493B5140EE51A75F00A6D
:1000F200A485F018F51902018F851782851683757C
:10010200F002E51A1204A2D37401939515E49395B3
:100112001440B4151A85178285168375F002E51A04
:100122001204A2E493F518740193F519E51A240157
:10013200FFE433FEEF25E0FFEE33FEE5172FF582F5
:10014200E5163EF583C37401939519FBE493951864
:10015200FAC3E5159519FFE5149518FE7C007D0A92
:1001620012043BAD03AC0212044DAB0775180085B7
:100172001A19AE18AF197C007D0A12043B8E188F33
:1001820019AF03EF2519F519E43518F518AE18AFB4
:010192001953
:010193002249
:1004AE00C374079512FFE49400FE74BF2FF5827497
:1004BE00013EF583E493F4F5F874082512F8E690FE
:1004CE00019493F4F5E80512C3E512940874809430
:0704DE00804003E4F5122247
:03000B000204E507
:1004E500C0E0C083C082C0D075D000C000C006C0C7
:1004F500071204AED200D007D006D000D0D0D082EB
:05050500D083D0E032BC
:0300000002052ACC
:0C052A00787FE4F6D8FD758120020309FB
:10043B00EF8DF0A4A8F0CF8CF0A428CE8DF0A42ED5
:02044B00FE228F
:10044D00BC000BBE0029EF8DF084FFADF022E4CC93
:10045D00F875F008EF2FFFEE33FEEC33FCEE9DEC5C
:10046D00984005FCEE9DFE0FD5F0E9E4CEFD22EDA2
:10047D00F8F5F0EE8420D21CFEADF075F008EF2FEC
:10048D00FFED33FD4007985006D5F0F222C398FDDD
:05049D000FD5F0EA227A
:0C04A200A42582F582E5F03583F5832265
:00000001FF
