:1000E8005354433848384B363455205541525431CF
:1000F80020546573742050726F6772616D6D65214D
:030108000D0A00DD
:10002600E4F593F594F591F592F595F596F5B1F518
:10003600B2F5B3F5B4F5C9F5CAF5CBF5CCF5E1F5EE
:10004600E27F01120078D2AF7BFF7A0079E81201D5
:1000560024E509650860FA2000F774212509F8E609
:10006600F599D2000509E509C3944040E4E4F50991
:0200760080DF29
:1001240012010B6010F599D2002000FD740129F929
:06013400E43AFA80EB2220
:10000300AD07AC06538EEF538EF7438E048CD6AFF9
:0A001300058FD753AFFB438E102278
:10007800BF020C438E017FD07EFF120003801BC29B
:100088008E538EFE438E405389BF5389CF758DFFA3
:10009800758BD0C2AB538FFDD28EE598543F444048
:1000A800F598D2ACD29C53A23FC200E4F509F508FA
:0100B8002225
:030023000200B91F
:1000B900C0E0C0D075D000C000309815C298742136
:1000C9002508F8A6990508E508C394404003750872
:0F00D90000309904C299C200D000D0D0D0E032DC
:0300000002013AC0
:0C013A00787FE4F6D8FD75816002002695
:10010B00BB010689828A83E0225002E722BBFE02F2
:09011B00E32289828A83E4932225
:00000001FF
