:1000F2005354433848384B363455205541525431C5
:1001020020546573742050726F6772616D6D652142
:030112000D0A00D3
:10002600E4F593F594F591F592F595F596F5B1F518
:10003600B2F5B3F5B4F5C9F5CAF5CBF5CCF5E1F5EE
:10004600E27F0112007CD2AF7BFF7A0079F21201C7
:100056002EE509650860FA2000F774212509F8E6FF
:10006600F599D2000509C3E509944074809480404F
:06007600E0E4F50980DB67
:10012E001201156010F599D2002000FD740129F915
:06013E00E43AFA80EB2216
:10000300AD07AC06538EEF538EF7438E048CD6AFF9
:0A001300058FD753AFFB438E102278
:10007C00EF6402700C438E017FD07EFF1200038070
:10008C001BC28E538EFE438E405389BF5389CF754E
:10009C008DFF758BD0C2AB538FFDD28EE598543F3C
:1000AC004440F598D2ACD29C53A23FC200E4F5096F
:0300BC00F5082222
:030023000200BF19
:1000BF00C0E0C0D075D000C000309819C29874212C
:1000CF002508F8A6990508C3E50894407480948024
:1000DF004003750800309904C299C200D000D0D0F7
:0300EF00D0E0322C
:03000000020144B6
:0C014400787FE4F6D8FD7581600200268B
:10011500BB010689828A83E0225002E722BBFE02E8
:09012500E32289828A83E493221B
:00000001FF
