:1001AF003F065B4F666D7D077F6F777C395E797198
:1001BF000040761E7038375C733E783D6750376E5F
:1001CF00BF86DBCFE6EDFD87FFEF46010204081087
:1001DF002040800001020003000000040000000026
:0301EF000000000D
:1001F200C3E516940A74809480400AE51675F00AE5
:1002020084F50B8003750B10E51675F00A8485F0F2
:100212000CE51375F00A84F50DE51375F00A848573
:10022200F00EC3E51A94F4E51994014003430C203F
:0102320022A9
:10026A000508C3E508943C748094804021E4F508AD
:10027A000513E513943C748094804012E4F5130549
:0F028A0016E5169418748094804003E4F516224C
:10000E00E4F593F594F591F592F595F596F5B1F530
:10001E00B2F5B3F5B4F5C9F5CAF5CBF5CCF5E1F506
:10002E00E2F51B758E80758CA2758A40D2A9D28C92
:10003E00D2AFFFEFC39408748094805009740B2FD5
:10004E00F876100F80ED75160CE4F513F508120115
:10005E00F2E4F515F509F514F518F517F50A300063
:10006E00FDC200051AE51A70020519C394E8E519D8
:10007E009403400BE4F519F51A12026A1201F2E527
:10008E001AB4F408E519B401031201F2050AC3E526
:10009E000A9432748094804006E4F50A120139AF56
:1000AE00157E00D3EF94007480948040B1E51575F1
:1000BE00F00A84F511E51575F00A8485F012EF64E7
:1000CE001170130516C3E5169418748094804003BE
:1000DE00E4F5161201F2E515641270131516C3E558
:1000EE001694187480948040037516171201F2E569
:1000FE001564137015F5080513C3E513943C74804D
:10010E0094804003E4F5131201F2E51564147015A2
:10011E00F5081513C3E513943C7480948040037561
:0B012E00133B1201F2E4F51502006C17
:040003007F3CDFFE61
:0100070022D6
:10013900AE187580F0120003E58054F0F51875804B
:100149000F120003E580540F42186318FFEE65187B
:100159007050AE14851814E5146044C2D5EE7004CD
:10016900D2D58016EEB514120517E517C394147489
:100179008094804005751712D2D530D525E514C471
:10018900540F9001E293FE6019E514540F93FF6038
:1001990011EE25E025E0FEEF2E240CF5158003E491
:0501A900F5177580FF51
:0101AE00222E
:10023300C37407951BFFE49400FE74DA2FF58274F0
:10024300013EF583E493F4F5F8740B251BF8E6906F
:1002530001AF93F4F5E8051BC3E51B940874809480
:07026300804003E4F51B22BB
:03000B0002029955
:10029900C0E0C083C082C0D075D000C000C006C015
:1002A90007120233D200D007D006D000D0D0D082B6
:0502B900D083D0E0320B
:030000000202BE3B
:0C02BE00787FE4F6D8FD75812002000E68
:00000001FF
