:1002210000010200030000000400000000000000C3
:10000300E4F593F594F591F592F595F596F5B1F53B
:10001300B2F5B3F5B4F5C9F5CAF5CBF5CCF5E1F511
:10002300E212014CD296D2AF7F1E1202111200D6F9
:10003300E50A60F4E4F50F7F567E011200AE7FAB54
:100043007E001201EF1200AAE4FF1201BC7FFF122F
:1000530001BCAF0A1201BCE50AF4FF1201BCC3E5FF
:100063000F9438748094805014C37438950FF50F2F
:10007300131313541F250FF50FFF1202117F1F12C5
:100083000211E50B601B7F567E011200AE7F567E88
:10009300001201EF1200AA7F601202111200D68033
:0700A300E1E4F50A02002B65
:0F0211007D367C07ED1D70011C144C70F7DFF17A
:0102200022BB
:04023D007F3CDFFE25
:01024100229A
:1000D600AE0D7580F012023DE58054F0F50D758089
:1000E6000F12023DE580540F420D630DFFEE650DC4
:1000F6007050AE0B850D0BE50B6044C2D5EE700457
:10010600D2D58016EEB50B12050CE50CC39414740B
:100116008094804005750C12D2D530D525E50BC4E8
:10012600540F90022193FE6019E50B540F93FF6064
:1001360011EE25E025E0FEEF2E240CF50A8003E4FF
:05014600F50C7580FFBF
:01014B002291
:0400AA007F157E0040
:1000AE008E088F0990FECDE4F090FECB7460F09038
:1000BE00FECD74B0F090FEC47410F0E509450870E2
:0200CE00FA2214
:1001EF008E088F0990FECDE4F090FECB7440F09016
:1001FF00FECD74B0F090FEC47410F0E509450870A0
:02020F00FA22D1
:0201BC00AD078D
:1001BE00E4FCECC39408748094805024ED30E00D80
:1001CE007F3F7E001201EF050F050F80097F157E20
:1001DE00001201EF050F1200AAEDC313FD0C80D221
:0101EE0022EE
:10014C0043BA8090FECDE4F090FECB7460F090FE4C
:10015C00D27402F0A37477F090FEDBE4F0A374D2B7
:10016C00F090FEB17440F0A3E4F090FEDD7480F0EA
:08017C0090FEC0E04401F022F6
:0300D300020184A3
:10018400C0E0C083C08290FEC5E030E424E4F0E522
:1001940009150970021508144508701590FECDF074
:1001A40090FECB7440F090FECD74B0F090FEC4E4A9
:0801B400F0D082D083D0E032CC
:03000000020231C8
:0C023100787FE4F6D8FD75810F02000311
:00000001FF
