:03000000020124D6
:0C012400787FE4F6D8FD75810B02000323
:080130000102040810204080C8
:1000E100E4F593F594F591F592F595F596F5B1F55D
:1000F100B2F5B3F5B4F5C9F5CAF5CBF5CCF5E1F533
:02010100E222F8
:1001030030CF0B7FC812011430CF037F01227F0051
:0101130022C9
:100003001200E1750B067E007F027D007B007A0003
:1000130079091200B5120103EF6008E50BB406037A
:10002300E4F50BE50B24FD601114603214605724D2
:100033000570E2D2CD750B0480DB050AE50A700278
:1000430005097FE8120114C3E50A942CE5096480CD
:10005300948140C1E4F509F50A750B0180B7050ADF
:10006300E50A700205097FE8120114C3E50A9458F2
:10007300E50964809482409DE4F509F50A750B0552
:10008300C2CDD2CC808F050AE50A700205097FE84C
:10009300120114C3E50A942CE5096480948150038A
:1000A300020018E4F509F50A750B06C2CEC2CC02AC
:0200B300001833
:0F0114007D367C07ED1D70011C144C70F7DFF178
:0101230022B9
:1000B500EF4E6012EF60010EEDBB010B89828A8362
:1000C500F0A3DFFCDEFA2289F05007F709DFFCA96F
:0C00D500F022BBFEFCF309DFFCA9F022C6
:00000001FF
