:10026D003F065B4F666D7D077F6F777C395E7971D9
:10027D000040761E7038375C733E783D6750376EA0
:10028D00BF86DBCFE6EDFD87FFEF460102040810C8
:10029D002040800001020003000000040000000067
:0302AD000000004E
:10000E00E4F593F594F591F592F595F596F5B1F530
:10001E00B2F5B3F5B4F5C9F5CAF5CBF5CCF5E1F506
:10002E00E2F51BFFEFC39408748094805009740AA4
:10003E002FF876100F80ED758E80758CA2758A4024
:10004E00D2A9D28C43BA8090FE8074E0F090FE82EA
:10005E00E4F0D2AF1202B0C2D5C3E508943C74806E
:10006E0094804002D2D5C3E512943C7480948040B3
:10007E0002D2D5C3E5159418748094804002D2D56F
:10008E0030D50BE4F508F51275150C1201D91202D4
:10009E0026750C11750F11E4F518F513F514F517F7
:1000AE00F516F5093000FDC200051AE51A700205B5
:1000BE0019C394E8E5199403400BE4F519F51A12E7
:1000CE0002B01202260509C3E509943274809480A9
:1000DE004006E4F509120163AF13EF60C7641170B7
:1000EE00160515C3E5159418748094804003E4F545
:1000FE00151201D9120226E513641270161515C3D6
:10010E00E51594187480948040037515171201D963
:10011E00120226E51364137018F5080512C3E512D2
:10012E00943C748094804003E4F5121201D91202BB
:10013E0026E51364147018F5081512C3E512943CE5
:10014E0074809480400375123B1201D9120226E48A
:05015E00F5130200B2E0
:10022600C3E515940A74809480400AE51575F00AB2
:1002360084F50A8003750A10E51575F00A8485F0C1
:100246000B750C11E51275F00A84F50DE51275F0C3
:100256000A8485F00EE50875F00A84F510E5087540
:07026600F00A8485F011226B
:1002B0007B007A0079217528037F02120329E5214A
:1002C000C4540775F00AA4FFE521540F2FF508E583
:1002D00022C4540775F00AA4FFE522540F2FF5122B
:1002E000E523C4540375F00AA4FFE523540F2FF54A
:0102F00015F8
:0102F10022EA
:1001D900E50875F00A84C454F0FFE50875F00A844F
:1001E900E5F02FF521E51275F00A84C454F0FFE516
:1001F9001275F00A84E5F02FF522E51575F00A84E9
:10020900C454F0FFE51575F00A84E5F02FF5237B5A
:0D021900007A0079217528037F020203821C
:040003007F3CDFFE61
:0100070022D6
:10016300AE177580F0120003E58054F0F517758023
:100173000F120003E580540F42176317FFEE651754
:100183007050AE14851714E5146044C2D5EE7004A4
:10019300D2D58016EEB514120516E516C394147461
:1001A3008094804005751612D2D530D525E514C448
:1001B300540F9002A093FE6019E514540F93FF604F
:1001C30011EE25E025E0FEEF2E240CF5138003E469
:0501D300F5167580FF28
:0101D8002204
:1002F200C37407951BFFE49400FE74982FF5827473
:10030200023EF583E493F4F5F8740A251BF8E690AF
:10031200026D93F4F5E8051BC3E51B940874809401
:07032200804003E4F51B22FB
:03000B000203A944
:1003A900C0E0C083C082C0D075D000C000C006C004
:1003B900071202F2D200D007D006D000D0D0D082E6
:0503C900D083D0E032FA
:0C04230090FE82E030E6F9E054BFF022C9
:09043B0090FE817401F00204231B
:0E04070090FE86EFF090FE817402F002042356
:1003CE00AE0712043B7FA21204071203E0AF06121F
:0203DE00040712
:0903E00090FE817403F002042375
:0F03E90090FE817404F012042390FE87E0FF223F
:0E04150090FE82E4F090FE817405F002042354
:0F03F80090FE827401F090FE817405F0020423E0
:0904440090FE817406F00204230D
:100382008B258A2689271203CEAB250527E527AAC6
:10039200267002052614F9120357FF1204071203EE
:0703A200E0D528E502044448
:100329001203CE12043B7FA31204071203E0120347
:10033900E9EF120370740129F9E43AFAE528640136
:0E0349006003120415D528E61203F8020444DE
:0300000002042FC8
:0C042F00787FE4F6D8FD75812802000EED
:10035700BB010689828A83E0225002E722BBFE02A4
:09036700E32289828A83E49322D7
:10037000BB010689828A83F0225002F722BBFE016C
:02038000F32266
:00000001FF
