:10001E00E4F593F594F591F592F595F596F5B1F520
:10002E00B2F5B3F5B4F5C9F5CAF5CBF5CCF5E1F5F6
:10003E00E2D2AFC2C012006612007F1200A61200FA
:06004E00BC1200CF80FE91
:10006600C28CD2A95389FC5389FB538FFE438E80E1
:09007600758CA2758A40D28C221F
:10007F00C28ED2AB5389CF5389BF538FFD438E406E
:09008F00758DD1758B20D28E22F3
:1000A600538EE343AF04538FFB438E0475D6E0753E
:0600B600D7C0438E1022AA
:1000BC0053D1F043AF2043D10275D4E875D59043AA
:0300CC00D1082236
:1000CF0053D10F43AF4043D12075D2ED75D3404389
:0300DF00D18022AB
:03000B00020003ED
:03000300B2EF3227
:03001B00020006DA
:03000600B2EE3225
:0300630002005444
:03005400B2ED32D8
:03009B0002005709
:03005700B2EC32D6
:0300A30002005AFE
:03005A00B2EB32D4
:0300000002000EED
:0C000E00787FE4F6D8FD75810702001E23
:00000001FF
