:10026F003F065B4F666D7D077F6F777C395E7971D7
:10027F000040761E7038375C733E783D6750376E9E
:10028F00BF86DBCFE6EDFD87FFEF460102040810C6
:10029F002040800001020003000000040000000065
:0302AF000000004C
:1000D600E4F593F594F591F592F595F596F5B1F568
:1000E600B2F5B3F5B4F5C9F5CAF5CBF5CCF5E1F53E
:1000F600E2F53B758E80758CF9758A69D2A9D28C2A
:10010600D2AF1202B2E4FFEFC39408748094805019
:100116000974222FF876110F80ED752610752710B9
:100126003001FDC201053AC3E53A941B7480948000
:10013600403FE4F53A1201B0D3E53194007480945F
:1001460080402E7F567E011203857FAB7E00120310
:10015600A77F157E00120385E4FF1203597FFF1265
:100166000359AF31120359E531F4FF120359E4F58F
:10017600313000ACC200E52FC4540FF522E52F54F0
:100186000FF523E52FC4F854F0C8E530C4540F48E2
:10019600540FF524E530540FF525E52EC4540FF51C
:0A01A60028E52E540FF5290201266A
:040003007F3CDFFE61
:0100070022D6
:1001B000AE367580F0120003E58054F0F536758098
:1001C0000F120003E580540F42366336FFEE6536AA
:1001D0007050AE32853632E5326044C2D5EE7004DE
:1001E000D2D58016EEB532120535E535C3942574A7
:1001F0008094804005753521D2D530D525E532C4AF
:10020000540F9002A293FE6019E532540F93FF60E1
:1002100011EE25E025E0FEEF2E240CF5318003E4FD
:05022000F5357580FFBB
:0102250022B6
:10032200C37407953BFFE49400FE749A2FF5827420
:10033200023EF583E493F4F5F87422253BF8E69047
:10034200026F93F4F5E8053BC3E53B94087480948F
:07035200804003E4F53B22AB
:10000E000521A20392D5A2B2920320D5030200C508
:10001E003003030200C5852108E4F521AF08FCFD7D
:10002E00FE7BD6FAF9F8C31203C95003C20222AFFF
:10003E0008E4FCFDFE7B8AFAF9F8D31203C95014CA
:10004E00AF08E4FCFDFE7BB0F81203C95069D20282
:10005E0075342022300260AF08E4FCFDFE7B2AFAE4
:10006E00F9F8C31203C95003C20222E52AC313F5DD
:10007E002AAF08E4FCFDFE7B18FAF9F8D31203C987
:10008E005003432A801534E534701DC202E52AF46C
:10009E00652D7023E538FE7C00E42539F530EC3E05
:1000AE00F52F852D2ED20022E534540770098538A0
:0700BE0039852D38852A2D3C
:0100C5002218
:03000B00020226C8
:10022600C0E0C0F0C083C082C0D075D000C000C09E
:1002360001C002C003C004C005C006C00712000EFC
:100246001533E533700875330ED201120322D00739
:10025600D006D005D004D003D002D001D000D0D033
:09026600D082D083D0F0D0E03248
:100385008E2B8F2C90FECDE4F090FECB7460F09018
:10039500FECD74B0F090FEC47410F0E52C452B70C2
:0203A500FA223A
:1003A7008E2B8F2C90FECDE4F090FECB7440F09016
:1003B700FECD74B0F090FEC47410F0E52C452B70A0
:0203C700FA2218
:02035900AD07EE
:10035B00E4FCECC3940874809480501DED30E004F1
:10036B007F3F80027F157E001203A77F157E001250
:09037B000385EDC313FD0C80D9CC
:010384002256
:1002B20043BA8090FECDE4F090FECB7460F090FEE5
:1002C200D27402F0A37477F090FEDBE4F0A374D250
:1002D200F090FEB17440F0A3E4F090FEDD7480F083
:0802E20090FEC0E04401F0228F
:0300D3000202EA3C
:1002EA00C0E0C083C08290FEC5E030E424E4F0E5BB
:1002FA002C152C7002152B14452B701590FECDF081
:10030A0090FECB7440F090FECD74B0F090FEC4E441
:08031A00F0D082D083D0E03264
:030000000200C635
:0C00C600787FE4F6D8FD75813B0200D67F
:1003C900EB9FF5F0EA9E42F0E99D42F0E89C45F08A
:0103D9002201
:00000001FF
